:10000000ABC00000CEC00000CCC00000CAC00000E1
:10001000B9C40000C6C000009FC20000C2C00000FA
:10002000C0C00000BEC00000BCC0000070C2000024
:10003000B8C00000B6C00000B4C00000B2C00000EC
:10004000B0C00000AEC00000ACC00000AAC00000FC
:1000500005010904A1010901850175081580257FA5
:10006000A1000930093195028102C0A100093209BD
:100070003395028102C0A100093409350936950380
:100080008102C0A1020600FF850295180900B10295
:10009000850395120903B102850495010904B10293
:1000A000850595010905B102850695010906B1028C
:1000B000850795010907B102C0C0090222000101AC
:1000C00000A019090400000103000000092101013A
:1000D0000001226A000705810308001412011001C3
:1000E000FF000008C016E803000101020301280315
:1000F000670072006500750065006C002E006F00DF
:10010000720067003A0068006900640072006300D2
:100110006A006F007900260352002F004300200080
:1001200074006F0020005000430020004A006F0060
:10013000790073007400690063006B0016036700A8
:1001400072006500750065006C002E006F00720083
:10015000670004030904940611241FBECFEFD2E008
:10016000DEBFCDBF11E0A0E0B1E0E4E5FEE002C0FB
:1001700005900D92A230B107D9F721E0A2E0B1E0DD
:1001800001C01D92AA39B207E1F710E0CCEAD0E035
:1001900003C02197FE0126D6CB3AD107D1F727D548
:1001A00057C62ECFDF92EF92FF920F931F93CF93FC
:1001B000DF93D0905E0181E08093210162E2E62E20
:1001C00061E0F62E09E211E0C0E0D0E0DD2009F4A4
:1001D00043C08091410190914201209143013091AF
:1001E0004401D8011B96EC91F894F0E0EE0FFF1F4C
:1001F000E75BFE4F608171817894681B790B809179
:10020000330190E00C2E02C0959587950A94E2F791
:1002100080FF03C0719561957109CB01770FAA0B1F
:10022000BB0BBC01CD0147E0660F771F881F991FEC
:100230004A95D1F7032E000C440B550B95D5203869
:10024000EFEF3E074E075E074CF0203831054105C1
:1002500051052CF02FE703C020E001C020E8D701B2
:100260002D937D0121960F5F1F4FC730D10509F0F7
:10027000ADCFDF91CF911F910F91FF90EF90DF9065
:10028000089542E150E060E070E089E291E0B9D584
:1002900080912A01803131F580912D0190912E01BC
:1002A000805D974081349F41E8F480912F019091C7
:1002B0003001845F9140853C9940A0F480913101E8
:1002C000909132010A978F3A9B4060F4E4E3F1E0A9
:1002D0008191873038F481E0EB33F807C9F789E280
:1002E00091E071C480E180932A0110922B018CEA85
:1002F0009DE090932E0180932D018CED95E09093DD
:10030000300180932F0184EF91E09093320180932C
:10031000310110923301E4E3F1E080E081938F5FDB
:100320008730E1F7DCCF1F93CF93DF93C0910701B4
:10033000CC23F1F0DC2F6C1708F4D62FBC01109100
:100340000801812F90E04D2F50E0875D9E4F50D5E2
:100350001D0F10930801CD1BC0930701C11103C0ED
:1003600089E291E030D481E0CC2319F080E001C033
:1003700081E0DF91CF911F910895CF93DF93FC012E
:1003800020812076203209F0BEC08181813009F0C1
:1003900063C08281823079F0833009F453C08130A8
:1003A00009F0B1C0FFDE81E291E090937F0180937C
:1003B0007E0188E0A9C020915E01809309018091AF
:1003C0003B0190913C01A0913D01B0913E01809391
:1003D0000D0190930E01A0930F01B0931001222301
:1003E00049F0F89440914701509148017894942F36
:1003F000852F02C090E080E090931101809312015C
:10040000A3E1B1E0C9E2D1E0222359F0EB85F894F1
:10041000F0E0EE0FFF1FE75BFE4F80819181789443
:1004200002C080E090E08D939D932196F1E0A1328F
:10043000BF0751F789E091E090937F0180937E019F
:1004400088E162C08093290189E291E090937F0165
:1004500080937E0182E158C0893009F045C08281D5
:100460008530C1F110F5833031F1843009F04BC093
:1004700080E180932A0110922B018CEA9DE09093F9
:100480002E0180932D018CED95E0909330018093A7
:100490002F0184EF91E0909332018093310110920B
:1004A0003301E4E3F1E080E00DC08630A9F087304D
:1004B00051F5A4CD28C01092080182E18093070174
:1004C0008FEF22C081938F5F8730E1F789E291E05F
:1004D0007AD319C0D6DE17C042E150E060E070E088
:1004E00089E291E09ED40FC0823041F486E091E031
:1004F00090937F0180937E0181E006C08A3019F4D9
:1005000083818093060180E0DF91CF9108951F924F
:100510000F920FB60F9211248F939F93AF93BF93B7
:1005200080915F0190916001A0916101B0916201A1
:100530000196A11DB11D80935F0190936001A0936E
:100540006101B0936201BF91AF919F918F910F9024
:100550000FBE0F901F9018951F920F920FB60F921B
:1005600011242F933F934F935F938F939F93EF9318
:10057000FF938091860090918700789420912B01C1
:1005800020FD2DC02091450130914601AC01421B58
:10059000530B909346018093450180913F019091C8
:1005A00040014817590760F05093480140934701B4
:1005B00010925801809157018F5F809357010FC0AF
:1005C00080915801873058F4E82FF0E0EE0FFF1FBC
:1005D000E75BFE4F518340838F5F80935801FF910B
:1005E000EF919F918F915F914F913F912F910F903C
:1005F0000FBE0F901F901895CF92DF92EF92FF924F
:100600000F931F93811105C080E291EAA7E0B0E04B
:1006100004C080E593ECA0E0B0E0009102011091ED
:10062000030120910401309105016A017B01C01A88
:10063000D10AE20AF30A8C159D05AE05BF0560F4E8
:1006400040930201509303016093040170930501EC
:1006500095B182E0892785B91F910F91FF90EF90A6
:10066000DF90CF900895CF93C62F20916E0124FF85
:1006700007C030916F0128E8232720936F0103C042
:100680002AE520936E012C2FFC01A0E7B1E08191B7
:100690008D9321501216DCF36C2F80E791E05BD133
:1006A000CC5FC0936E01CF910895CF93DF9360919B
:1006B0008001635067FDCDC080917D01CCE0D0E02A
:1006C000C81BD109CC57DE4F80917C018D3209F0D7
:1006D000AFC0683009F0BBC083EC809363018AE54A
:1006E0008093010110927B018881807631F0CE01E8
:1006F00044DE8F3F09F48BC091C09A8110926C0147
:100700008981811106C010926D012CE631E082E0F2
:1007100079C0853019F49093810171C0863009F059
:1007200058C08B81813041F48CED90E090937F0133
:1007300080937E0182E149C0823041F48AEB90E0EF
:1007400090937F0180937E0182E23FC0833041F528
:10075000911108C082E591E090937F0180937E0122
:1007600084E033C0913041F48CE391E090937F01B9
:1007700080937E0186E129C0923041F486E191E0C8
:1007800090937F0180937E0186E21FC09330E1F455
:100790008EEE90E090937F0180937E0188E215C0F9
:1007A000813241F48CEC90E090937F0180937E0144
:1007B00089E00BC0823241F480E590E090937F01A4
:1007C00080937E018AE601C080E090E490937B01F3
:1007D00025C0883069F0893019F4909383010FC0E7
:1007E0008A3049F08B3059F48BE480936F0107C055
:1007F00023E831E002C02CE631E081E003C02CE6C2
:1008000031E080E030937F0120937E0107C0988122
:1008100097FD8E8190E890937B0107C09F81911195
:1008200004C09E81981708F4892F809300010FC09F
:1008300080917B0187FF0BC0CE0175DD8F3F21F4D6
:100840008EE18093010103C081111092000110928A
:1008500080018091010184FF4BC0809100018F3F96
:1008600009F446C0C82F893008F0C8E08C1B80937B
:1008700000019091630188E8892780936301CC236C
:1008800059F180917E0190917F0120917B0126FF9B
:1008900012C0A3E6B1E02C2FAC0143565140FA013F
:1008A000EA0FFB1FE4911196EC93119721501196DA
:1008B0002111F5CF08C0E4E6F1E0DC012C2F3D91D9
:1008C00031932150E1F701962FEF2C0F820F911DEC
:1008D00090937F0180937E016C2F84E691E03BD062
:1008E000CC5FCC3019F08FEF80930001C0930101F1
:1008F00084E193B1987431F48150D9F71092810159
:1009000010927A01DF91CF910895ECE6F0E08081BA
:1009100080648083E8E6F0E0808182608083EEE698
:10092000F1E08BE481838AE580830895A82FB92FB5
:1009300080E090E041E050EA609530E009C02D9100
:1009400082279795879510F084279527305EC8F306
:100950006F5FA8F30895EADF8D939D930895A6E055
:1009600088279927AA9569F00197E1F31B99FCCF95
:100970001B9BFECF81E09927A3B1019611F0A874CB
:10098000D9F70895CF93CFB7CF93DF93C3951B9B30
:10099000E9F71B9B0BC01B9B09C01B9B07C01B9B44
:1009A00005C01B9B03C01B9B01C08BC06F93C091F4
:1009B0007D01DD27CC57DE4F2F9365E51B9B03C0E0
:1009C0002F916F91E6CF0F931F934F9320E040E15B
:1009D0005F9303B1087403FB27F93F9350E03BE0BA
:1009E00039C0187440642F77012F5F5F1EC04068C4
:1009F00013B118742F7752501FC0406403B12F7782
:100A00000874D1F15F5F00C023C0406213B12F773B
:100A1000187491F15F5F00C025C008741027515011
:100A200012F45D5F0000115027952C3F13B1C8F6FA
:100A300018740127015027952C3FC8F64227499387
:100A400003B1087410274F73115027952C3FA8F657
:100A50004695469513B1187479F0012701502795F2
:100A60002C3F98F66B5A60F3315003B1B0F600C0DA
:100A700012E01BBB002719C03B503195C31BD0406F
:100A800012E01BBB0881033C09F10B34F9F0209103
:100A90007A011981110F1213EDCF4A81441F0936D3
:100AA00051F10D3211F0013E29F7009382013F917F
:100AB0005F914F911F910F912F916F91CBB3C1FD1A
:100AC00065CFDF91CF91CFBFCF9118952091820153
:100AD000222369F310918001112391F5343092F1B2
:100AE0003093800120937C0110917D013BE0311B0C
:100AF00030937D0127C00091800101300CF50AE59B
:100B00004F7049F43091010134FD1DC00093010183
:100B1000C3E6D1E01CC030916E0134FD14C00093D7
:100B20006E01CFE6D1E013C0052710E000C0000041
:100B300005B91AC0052710E0221F1DC010E021C012
:100B40004AE502C032ED432FC4E1D0E032E014B1F7
:100B500018642B9A05B114B958E420E865E320FF26
:100B6000052705B9279517951C3FF0F66695B8F748
:100B7000B1F720FF052705B9279517951C3FD0F63B
:100B80002795179517FF052700001C3F05B9B0F6FC
:100B900029913A9519F7077B10918101110FC651E0
:100BA000D04005B911F010937A0112E01BBB086028
:100BB00014B1177B402F477B54E05A95F1F705B9E4
:100BC00014B945B974CFFC0184819581880F991FB0
:100BD000978B868B86819781880F991F918F808F45
:100BE00080859185880F991F938F828F08959EE04D
:100BF00088E10FB6F894A895809360000FBE90939B
:100C0000600082E084B980E182B913BC83E085BDD5
:100C100086BD81E080936E0082EC8093810080E845
:100C200094E8AEE1B0E080933B0190933C01A09347
:100C30003D01B0933E0180E280936F0066DE239A0F
:100C400080E091E0A895EFE9FFE03197F1F700C06F
:100C500000000197B9F7239814DB7894C1E0A895B8
:100C600024DD80916E0184FF05C09CDA68E081E29A
:100C700091E0F9DC9FB7F89440915F0150916001D9
:100C8000609161017091620187B5A89B03C08F3F9D
:100C900009F045C09FBF762F652F542F4427480F7A
:100CA000511D611D711D27E0440F551F661F771FE1
:100CB0002A95D1F735E076956795579547953A95FA
:100CC000D1F78091570190915901891318C08091F3
:100CD0005A0190915B01A0915C01B0915D018A0184
:100CE0009B01081B190B2A0B3B0BD901C801813A48
:100CF0009648A140B10578F010925E010CC0809337
:100D0000590140935A0150935B0160935C017093C9
:100D10005D01C0935E0180915E016EDCA0CF4F5FEC
:100D20005F4F6F4F7F4FB6CFCF93DF93E9E2F1E094
:100D3000178A168A118E108E138E128E158E148EAF
:100D4000178E168E8EE0A9E4B1E0ED0119928A9516
:100D5000E9F716A617A610AA11AA12AA13AA14AA8E
:100D600015AADF91CF910895052E97FB16F40094F4
:100D70000FD057FD05D014D007FC02D046F408C0B0
:100D800050954095309521953F4F4F4F5F4F0895B7
:100D900090958095709561957F4F8F4F9F4F0895E7
:100DA000A1E21A2EAA1BBB1BFD010DC0AA1FBB1F6F
:100DB000EE1FFF1FA217B307E407F50720F0A21BE1
:100DC000B30BE40BF50B661F771F881F991F1A944E
:100DD00069F760957095809590959B01AC01BD0178
:100DE000CF010895EE0FFF1F0590F491E02D0994B7
:100DF000FB01DC0102C001900D9241505040D8F738
:100E00000895DC01CB01FC01F999FECF06C0F2BDCB
:100E1000E1BDF89A319600B40D9241505040B8F7B8
:100E20000895DC01CB0102C02D9105D04150504006
:100E3000D8F70895262FF999FECF1FBA92BD81BD2C
:100E400020BD0FB6F894FA9AF99A0FBE019608954C
:040E5000F894FFCF44
:020E5400FF5A43
:00000001FF
