:10000000E9C0000004C1000002C1000000C10000FE
:10001000FEC00000FCC00000FAC00000F8C00000F4
:10002000F6C00000F4C000000C94B10CF0C0000059
:10003000EEC00000ECC00000EAC00000E8C0000014
:1000400000C30000E4C00000E2C00000E0C0000007
:10005000DEC00000DCC00000DAC00000CDC200003D
:10006000D6C000003FC30000D2C00000D0C00000D6
:10007000CEC00000CCC00000CAC00000C8C0000054
:10008000C6C00000C4C00000C2C00000C0C0000064
:10009000BEC00000BCC00000BAC00000B8C0000074
:1000A000B6C00000B4C00000B2C000009B0DBB0D84
:1000B0006F0EBB0D6F0EF90D1B0E6F0E3E0E4D0E2B
:1000C0002803670072006500750065006C002E0053
:1000D0006F00720067003A006800690064007200F7
:1000E00063006A006F0079000000260352002F00B1
:1000F0004300200074006F002000500043002000E7
:100100004A006F00790073007400690063006B009F
:1001100000001603670072006500750065006C0042
:100120002E006F007200670000000403090409023A
:1001300022000101008019090400000103000000F1
:100140000921110100012270000705810308001434
:100150001201100100000008C016E80301000102AE
:10016000030105010904A1010901850175081500B4
:1001700026FF00350046FF00A10009300931950235
:100180008102C0A1000932093395028102C0A10099
:1001900009340935093695038102C0A10206FF0022
:1001A000850295100902B102850395120903B10277
:1001B000850495010904B102850595010905B1027F
:1001C000850695010906B102850795010907B10267
:1001D000C0C0321011241FBECFEFDAE0DEBFCDBFAA
:1001E00021E0A0E0B1E001C01D92A23BB207E1F71F
:1001F00010E0CAEED0E004C02197FE010E948410F6
:10020000C93ED107C9F70E94500F0C94FC10F8CEDC
:1002100042E150E060E070E08CE191E00E94BB10B0
:1002200080911D01813199F58091200190912101EA
:10023000805D974081349F4150F5809122019091DB
:100240002301845F9140853C994008F58091240109
:10025000909125010A978F3A9B40C8F4E7E2F1E0BC
:1002600081918730A0F481E0EE32F807C9F78091E0
:100270001E0181702091200130912101220F331F36
:10028000309333012093320180933401089581E14A
:1002900080931D0110921E018CEA9DE09093210134
:1002A000809320018CED95E09093230180932201AF
:1002B00086E292E09093250180932401109226011A
:1002C000E7E2F1E080E081938F5F8730E1F7CFCF05
:1002D000AF92BF92CF92DF92FF920F931F93CF9373
:1002E000DF9380914C01811106C08091A2018111A0
:1002F00005C0F12C05C0FF24F39402C032E0F32EB8
:1003000081E08093140105E111E0C0E0D0E0FF201E
:1003100009F441C0A0902201B0902301C0902401B3
:10032000D09025016C2F8CE191E00E94060FBC015A
:100330006A197B098091260190E00C2E02C09595E8
:1003400087950A94E2F780FF03C071956195710962
:10035000CB01770FAA0BBB0BBC01CD0127E0660FC9
:10036000771F881F991F2A95D1F79601DD0C440B42
:10037000550B0E946810DA01C90180589F4FAF4F9A
:10038000BF4FB7FD0AC08F3F9105A105B10509F028
:1003900034F4282F05C020E803C020E001C02FEF6F
:1003A000F80121938F012196C730D10509F0AFCF15
:1003B000DF91CF911F910F91FF90DF90CF90BF9071
:1003C000AF900895EF92FF921F93CF93DF931F9208
:1003D000CDB7DEB78091E80083FF02C18091AB0109
:1003E000813021F0893009F463C0FAC09091AA01EC
:1003F000913A09F0F5C02091AC013091AD0133275D
:100400002230310599F02330310509F444C0213000
:10041000310509F0E5C05CDF8091E800877F8093BB
:10042000E80068E070E084E191E02EC092E09093F3
:10043000040190914C01911104C08091A20181119D
:1004400082E08093050186E0E82E81E0F82E10E03E
:1004500080910501882331F0612F8CE191E00E94A9
:10046000060F02C080E090E0F701819391937F0135
:100470001F5F173069F78091E800877F8093E8005D
:1004800060E170E084E091E08BD58091E8008B77AB
:100490008093E800A5C083E080931C018091E80070
:1004A000877F8093E80062E170E08CE191E0ECCF1F
:1004B0008091AA01813209F093C08091AC018983B7
:1004C000853009F465C090F5833009F446C0843066
:1004D00009F086C08091E800877F8093E80061E0A2
:1004E00070E0CE01019622D68091E8008E7780934D
:1004F000E80081E180931D0110921E018CEA9DE0CD
:1005000090932101809320018CED95E0909323013D
:100510008093220186E292E090932501809324014A
:1005200010922601E7E2F1E080E025C0863009F470
:1005300040C0873009F054C08091E800877F8093E5
:10054000E80061E070E0CE010196F0D58091E8000E
:100550008E778093E80052CD43C08091E800877F7A
:100560008093E80062E170E08CE191E0DFD580915A
:10057000E8008E778DCF81938F5F8730E1F788E534
:100580009BE190933301809332011092340128C093
:100590008091E800877F8093E80061E070E0CE0101
:1005A0000196C4D58091E8008E778093E80030DE14
:1005B00017C08091E800877F8093E80061E070E0D9
:1005C000CE010196B3D58091E8008E778093E80044
:1005D00042E150E060E070E08CE191E00E94E510C3
:1005E0000F90DF91CF911F91FF90EF90089542E01F
:1005F00061EC81E00C94680B1F920F920FB60F9282
:1006000011248F939F93AF93BF938091A3019091F7
:10061000A401A091A501B091A6010196A11DB11D53
:100620008093A3019093A401A093A501B093A60188
:10063000BF91AF919F918F910F900FBE0F901F9020
:1006400018951F920F920FB60F9211242F933F937C
:100650004F935F938F939F93EF93FF932091860027
:100660003091870078948091340181112EC080915F
:10067000350190913601A901481B590B3093360181
:1006800020933501209132013091330142175307F5
:1006900040F010924501809146018F5F80934601A2
:1006A00014C020914501273080F4F894E091450171
:1006B000F0E0EE0FFF1FE45EFE4F548F438F7894FF
:1006C000809145018F5F80934501FF91EF919F914C
:1006D0008F915F914F913F912F910F900FBE0F908F
:1006E0001F9018951F920F920FB60F921124CF9260
:1006F000DF92EF92FF922F933F934F935F936F930D
:100700007F938F939F93AF93BF93EF93FF93FFB626
:10071000F89483EA91E00E949E0EFFBEDC01CB01BB
:1007200027E0880F991FAA1FBB1F2A95D1F735E034
:10073000B695A795979587953A95D1F72091CE00D4
:10074000C0904D01D0904E01E0904F01F0905001CB
:10075000AC01BD014C195D096E097F096A017B017D
:1007600080934D0190934E01A0934F01B09350019F
:1007700080919B01882319F0E6E7F1E002C0E1E5F2
:10078000F1E051EAC5165FE0D506E104F10418F086
:1007900014A281EF83A384A1833290F491E0980F97
:1007A00094A3DF01A80FB11D2C93933249F482EF7B
:1007B00083A381E090919B01911180E080939B0144
:1007C000FF91EF91BF91AF919F918F917F916F9129
:1007D0005F914F913F912F91FF90EF90DF90CF90DD
:1007E0000F900FBE0F901F901895DA01292F332715
:1007F0002330310519F170F421303105C1F0223078
:10080000310509F03CC08EE291E08D939C9382E229
:1008100090E008952132310559F12232310579F500
:1008200082E691E08D939C9380E790E0089580E5C7
:1008300091E08D939C9382E190E008959927813017
:10084000910561F040F08230910579F00397B9F499
:10085000E0ECF0E005C0EAE2F1E002C0E2E1F1E044
:10086000ED93FC93849190E00895EAEEF0E0F8CFE8
:1008700080E491E08D939C9389E090E0089580E07E
:1008800090E00895EF92FF920F931F93CF93DF9321
:10089000EC018B01C2D781112DC00115110529F082
:1008A000F80180819181C81BD90BE12CF12C209794
:1008B00001F18091E80085FD15C08091E8008B77FB
:1008C0008093E8000115110549F0F80180819181BC
:1008D000E80EF91EF182E08285E00CC09ED78823E5
:1008E00031F308C08091F1002197FFEFEF1AFF0A62
:1008F000DECF80E0DF91CF911F910F91FF90EF90BD
:100900000895EF92FF920F931F93CF93DF93EC0123
:100910008B0183D781112DC00115110529F0F80134
:1009200080819181C81BD90BE12CF12C209701F11A
:100930008091E80085FD15C08091E8008E77809356
:10094000E8000115110549F0F80180819181E80E58
:10095000F91EF182E08285E00CC05FD7882331F375
:1009600008C01092F1002197FFEFEF1AFF0ADECFC7
:1009700080E0DF91CF911F910F91FF90EF9008954C
:10098000CF92DF92EF92FF920F931F93CF93DF935B
:10099000EC018B017A0141D7811134C0E114F104DB
:1009A00039F0F70180819181081B190BC80FD91FFD
:1009B000C12CD12C0115110521F18091E80085FD94
:1009C00017C08091E8008E778093E8000E94840E23
:1009D000E114F10449F0F70180819181C80ED91E1C
:1009E000D182C08285E00EC018D7882319F30AC0CF
:1009F00089918093F10001501109FFEFCF1ADF0AAE
:100A0000D9CF80E0DF91CF911F910F91FF90EF90B0
:100A1000DF90CF900895CF92DF92EF92FF920F93E5
:100A20001F93CF93DF93EC018B017A01F6D68111EE
:100A300039C0C8010197C80FD91FE114F10439F07A
:100A4000F70180819181081B190BC81BD90BC12CA0
:100A5000D12C0115110529F18091E80085FD17C001
:100A60008091E8008E778093E8000E94840EE11464
:100A7000F10449F0F70180819181C80ED91ED1821D
:100A8000C08285E00FC0C9D6882319F30BC08881C6
:100A90008093F100219701501109FFEFCF1ADF0A6F
:100AA000D8CF80E0DF91CF911F910F91FF90EF9011
:100AB000DF90CF900895CF92DF92EF92FF920F9345
:100AC0001F93CF93DF93EC018B017A01A6D681119E
:100AD00034C0E114F10439F0F70180819181081BE1
:100AE000190BC80FD91FC12CD12C0115110521F1EB
:100AF0008091E80085FD17C08091E8008B77809396
:100B0000E8000E94840EE114F10449F0F7018081AD
:100B10009181C80ED91ED182C08285E00EC07DD6DB
:100B2000882319F30AC08091F100899301501109BB
:100B3000FFEFCF1ADF0AD9CF80E0DF91CF911F916D
:100B40000F91FF90EF90DF90CF900895CF92DF92BA
:100B5000EF92FF920F931F93CF93DF93EC018B01E2
:100B60007A015BD6811139C0C8010197C80FD91F1E
:100B7000E114F10439F0F70180819181081B190B10
:100B8000C81BD90BC12CD12C0115110529F180915D
:100B9000E80085FD17C08091E8008B778093E8001E
:100BA0000E94840EE114F10449F0F70180819181E3
:100BB000C80ED91ED182C08285E00FC02ED68823F0
:100BC00019F30BC08091F10088832197015011091E
:100BD000FFEFCF1ADF0AD8CF80E0DF91CF911F91CE
:100BE0000F91FF90EF90DF90CF900895CF92DF921A
:100BF000EF92FF920F931F93CF93DF93EC018B0142
:100C00007A010BD6811136C0E114F10439F0F701F5
:100C100080819181081B190BC80FD91FC12CD12CC1
:100C20000115110531F18091E80085FD17C0809113
:100C3000E8008E778093E8000E94840EE114F104AE
:100C400049F0F70180819181C80ED91ED182C082FE
:100C500085E010C0E2D5882319F30CC0FE01849111
:100C60008093F100219601501109FFEFCF1ADF0A9E
:100C7000D7CF80E0DF91CF911F910F91FF90EF9040
:100C8000DF90CF900895CF92DF92EF92FF920F9373
:100C90001F93CF93DF93EC018B017A01BED58111B5
:100CA0003AC0C8010197C80FD91FE114F10439F007
:100CB000F70180819181081B190BC81BD90BC12C2E
:100CC000D12C0115110531F18091E80085FD17C087
:100CD0008091E8008E778093E8000E94840EE114F2
:100CE000F10449F0F70180819181C80ED91ED182AB
:100CF000C08285E010C091D5882319F30CC0FE0195
:100D000084918093F100219701501109FFEFCF1AD0
:100D1000DF0AD7CF80E0DF91CF911F910F91FF9035
:100D2000EF90DF90CF900895CF92DF92EF92FF92F5
:100D30000F931F93CF93DF93EC018B017A016DD555
:100D4000811136C0E114F10439F0F70180819181FD
:100D5000081B190BC80FD91FC12CD12C0115110567
:100D600031F18091E80085FD16C08091E8008E7712
:100D70008093E800C9D7E114F10449F0F7018081BC
:100D80009181C80ED91ED182C08285E011C045D59F
:100D9000882321F30DC0CE010E94CB108093F10077
:100DA000219601501109FFEFCF1ADF0AD7CF80E05B
:100DB000DF91CF911F910F91FF90EF90DF90CF9037
:100DC0000895CF92DF92EF92FF920F931F93CF93EC
:100DD000DF93EC018B017A0120D581113AC0C80163
:100DE0000197C80FD91FE114F10439F0F701808190
:100DF0009181081B190BC81BD90BC12CD12C0115D3
:100E0000110531F18091E80085FD16C08091E80060
:100E10008E778093E80078D7E114F10449F0F70168
:100E200080819181C80ED91ED182C08285E011C017
:100E3000F4D4882321F30DC0CE010E94CB108093FF
:100E4000F100219701501109FFEFCF1ADF0AD7CF28
:100E500080E0DF91CF911F910F91FF90EF90DF9095
:100E6000CF900895CF92DF92EF92FF920F931F934E
:100E7000CF93DF93EC018B017A01CFD4811136C07F
:100E8000E114F10439F0F70180819181081B190BFD
:100E9000C80FD91FC12CD12C0115110531F180913A
:100EA000E80085FD16C08091E8008B778093E8000C
:100EB0002BD7E114F10449F0F70180819181C80E2C
:100EC000D91ED182C08285E011C0A7D4882321F326
:100ED0000DC06091F100CE010E94D3102196015007
:100EE0001109FFEFCF1ADF0AD7CF80E0DF91CF9152
:100EF0001F910F91FF90EF90DF90CF900895CF92C8
:100F0000DF92EF92FF920F931F93CF93DF93EC0149
:100F10008B017A0182D481113AC0C8010197C80FB0
:100F2000D91FE114F10439F0F70180819181081B88
:100F3000190BC81BD90BC12CD12C0115110531F18E
:100F40008091E80085FD16C08091E8008B77809342
:100F5000E800DAD6E114F10449F0F70180819181CB
:100F6000C80ED91ED182C08285E011C056D4882314
:100F700021F30DC06091F100CE010E94D3102197A2
:100F800001501109FFEFCF1ADF0AD7CF80E0DF91C0
:100F9000CF911F910F91FF90EF90DF90CF90089528
:100FA0002091B0013091B1012617370748F0611543
:100FB000710539F42091E8002E772093E80001C0F4
:100FC000B901FC0120E06115710579F18091A90159
:100FD0008823F1F18530F1F18091E80083FD3CC078
:100FE0008091E80082FD2EC08091E80080FFEBCF69
:100FF0002091F3008091F20090E0922B6115710531
:1010000051F08830910538F421912093F10061501E
:1010100071090196F3CF21E0089709F020E0809153
:10102000E8008E778093E800CECF2111CFCF0AC0A1
:101030008091A901882361F0853061F08091E800FA
:1010400083FD0AC08091E80082FFF2CF80E008951E
:1010500082E0089583E0089581E008959B01215086
:101060003109820F931F2091B0013091B1012617F1
:10107000370748F06115710539F42091E8002E77A3
:101080002093E80001C0B90140E061157105A9F1A4
:101090002091A901222309F443C0253009F442C05C
:1010A0002091E80023FD40C02091E80022FD32C0DD
:1010B0002091E80020FFE9CF4091F3002091F20059
:1010C00030E0342B6115710569F02830310550F49A
:1010D000FC0140814093F1000197615071092F5F3D
:1010E0003F4FF0CF41E02830310509F040E020913A
:1010F000E8002E772093E800C8CF4111C9CF0AC07D
:101100008091A901882361F0853061F08091E80029
:1011100083FD0AC08091E80082FFF2CF80E008954D
:1011200082E0089583E0089581E0089561157105D6
:1011300029F42091E8002B772093E800FC01611549
:10114000710541F18091A901882361F1853061F138
:101150008091E80083FD24C08091E80082FFEFCFFA
:101160002091F3008091F20090E0922B892B31F0D6
:101170008091F10081936150710991F78091E800AD
:101180008B778093E800DBCF8091A901882351F011
:10119000853051F08091E80080FFF6CF80E008951F
:1011A00081E0089582E0089583E008959B01215035
:1011B0003109820F931F6115710529F42091E80010
:1011C0002B772093E8006115710529F12091A90181
:1011D000222349F1253049F12091E80023FD21C067
:1011E0002091E80022FFEFCF4091F3002091F20020
:1011F00030E0342B232B11F32091F100FC012083EC
:1012000001976150710981F7D9CF8091A901882395
:1012100051F0853051F08091E80080FFF6CF80E0FA
:10122000089581E0089582E0089583E00895209173
:10123000B0013091B1012617370748F061157105EB
:1012400039F42091E8002E772093E80001C0B9011D
:10125000FC0120E06115710591F18091A9018823BD
:1012600009F440C0853009F43FC08091E80083FD57
:101270003DC08091E80082FD2FC08091E80080FF92
:10128000E9CF2091F3008091F20090E0922B61155C
:10129000710559F08830910540F424912093F100B4
:1012A0003196615071090196F2CF21E0089709F05B
:1012B00020E08091E8008E778093E800CBCF211169
:1012C000CCCF0AC08091A901882361F0853061F0FC
:1012D0008091E80083FD0AC08091E80082FFF2CF90
:1012E00080E0089582E0089583E0089581E0089504
:1012F000FB0131978E0F9F1F2091B0013091B101FA
:101300002617370748F06115710539F42091E80078
:101310002E772093E80001C0B90140E06115710506
:10132000A9F12091A901222309F443C0253009F431
:1013300042C02091E80023FD40C02091E80022FD3A
:1013400032C02091E80020FFE9CF4091F3002091C6
:10135000F20030E0342B6115710569F02830310559
:1013600050F4FC0144914093F100019761507109E0
:101370002F5F3F4FF0CF41E02830310509F040E0CA
:101380002091E8002E772093E800C8CF4111C9CF03
:101390000AC08091A901882361F0853061F08091B5
:1013A000E80083FD0AC08091E80082FFF2CF80E070
:1013B000089582E0089583E0089581E00895CF9232
:1013C000DF92EF92FF920F931F93CF93DF93EB0186
:1013D0002091B0013091B1012617370740F02097D6
:1013E00039F42091E8002E772093E80001C0E9014C
:1013F0006C0120E02097D9F18091A901882309F49C
:1014000049C0853009F448C08091E80083FD46C09A
:101410008091E80082FD38C08091E80080FFEACF2B
:101420008091F3000091F20010E0182B7801C701C1
:10143000801B910B8C0D9D1D209761F038E0E31609
:10144000F10440F4A8D68093F10021972FEFE21A1F
:10145000F20AEDCF21E038E0E316F10409F020E0D4
:101460003091E8003E773093E8006C01C3CF211142
:10147000C3CF0AC08091A901882361F0853061F053
:101480008091E80083FD0AC08091E80082FFF2CFDE
:1014900080E005C082E003C083E001C081E0DF910D
:1014A000CF911F910F91FF90EF90DF90CF90089513
:1014B000CF92DF92EF92FF920F931F93CF93DF9320
:1014C000EB016B0121E0C21AD108C80ED91E809130
:1014D000B0019091B1018617970740F0209739F439
:1014E0008091E8008E778093E80001C0EC0120E055
:1014F0002097E1F18091A901882309F44AC0853041
:1015000009F449C08091E80083FD47C08091E8005C
:1015100082FD39C08091E80080FFEACF8091F3001E
:101520000091F20010E0182B7E01C7018C1B9D0B6F
:101530008C0D9D1DE114F10461F00830110548F493
:101540002AD68093F10081E0E81AF1080F5F1F4F5F
:10155000ECCF21E00830110509F020E03091E800DF
:101560003E773093E8006C01E701C2CF2111C2CF72
:101570000AC08091A901882361F0853061F08091D3
:10158000E80083FD0AC08091E80082FFF2CF80E08E
:1015900005C082E003C083E001C081E0DF91CF910C
:1015A0001F910F91FF90EF90DF90CF9008950F93D0
:1015B0001F93CF93DF93EB01209729F42091E8004C
:1015C0002B772093E8008C01209751F18091A9019D
:1015D000882371F1853071F18091E80083FD26C088
:1015E0008091E80082FFF0CF2091F3008091F2001B
:1015F00090E0922B892B41F06091F100C801D3D586
:101600000F5F1F4F219781F78091E8008B778093C0
:10161000E800DACF8091A901882351F0853051F09C
:101620008091E80080FFF6CF80E005C081E003C034
:1016300082E001C083E0DF91CF911F910F91089567
:101640000F931F93CF93DF93EB018B01015011098F
:10165000080F191F209729F48091E8008B77809359
:10166000E800209729F18091A901882349F185306C
:1016700049F18091E80083FD21C08091E80082FF5C
:10168000F0CF2091F3008091F20090E0922B892B13
:1016900019F36091F100C80186D501501109219715
:1016A00081F7DACF8091A901882351F0853051F07C
:1016B0008091E80080FFF6CF80E005C081E003C0A4
:1016C00082E001C083E0DF91CF911F910F910895D7
:1016D000982F973068F59093E900981739F070913A
:1016E000EC002091ED005091F00003C0242F762FE4
:1016F00050E021FD02C09F5FECCF3091EB003E7FB8
:101700003093EB003091ED003D7F3093ED00309150
:10171000EB0031603093EB007093EC002093ED0010
:101720005093F0002091EE0027FDE5CF80E0089572
:101730008F708093E90081E008950F931F93CF93FA
:10174000DF93062FEC0110E0101771F16881611131
:1017500003C01F5F2596F8CF2C81A981BA819B8198
:10176000862F8F70873010F080E01FC0223010F479
:1017700042E001C046E0E8E0F0E020E0EA17FB07C5
:1017800020F42F5FEE0FFF1FF9CF2295207F422B11
:1017900050E4959F90011124661F6627661F622BF7
:1017A00097DF8111D6CFE0CF81E0DF91CF911F91FC
:1017B0000F9108951092F40080E08093E900109258
:1017C000F0001092E8001092ED009091EB009E7FE7
:1017D0009093EB008F5F873081F708958091AA0185
:1017E00087FF11C08091E80082FD05C08091A901AA
:1017F0008111F8CF11C08091E8008B770BC08091E8
:10180000A901882349F08091E80080FFF8CF8091FA
:10181000E8008E778093E80008952091E4003091ED
:10182000E50095E64091EC00842F817040FF23C0D5
:101830008091E80080FD1DC08091A901882399F066
:10184000853099F08091EB0085FD11C04091E40056
:101850005091E5002417350729F3915011F09A01B2
:10186000E1CF84E0089582E0089583E0089581E067
:10187000089580E008954091E80042FFDDCF08958B
:1018800063D06AD0E0EEF0E0808181608083E8ED93
:10189000F0E080818F77808319BCA7EDB0E08C9158
:1018A0008E7F8C9380818F7E80831092A801089513
:1018B0000F931F93CF93DF9347D04ED0C8EDD0E066
:1018C00088818F77888388818068888388818F7DED
:1018D000888319BC1092A9011092A70100EE10E0B4
:1018E000F80180818B7F808388818160888342E0DA
:1018F00060E080E0EDDEE1EEF0E080818E7F8083CD
:10190000E2EEF0E080818160808380818860808366
:10191000F80180818E7F8083888180618883DF9158
:10192000CF911F910F910895E8EDF0E080818F7EB7
:101930008083E7EDF0E080818160808384E082BF76
:1019400081E08093A801B4CFE8EDF0E080818E7F44
:1019500080831092E20008951092DA001092E10064
:1019600008951F920F920FB60F9211242F933F9359
:101970004F935F936F937F938F939F93AF93BF9397
:10198000EF93FF938091E10082FF0AC08091E20013
:1019900082FF06C08091E1008B7F8093E100B3D18C
:1019A0008091DA0080FF1DC08091D80080FF19C0AF
:1019B0008091DA008E7F8093DA008091D90080FFD9
:1019C0000CC080E189BD82E189BD09B400FEFDCF74
:1019D00081E08093A90197D104C019BC1092A9019C
:1019E00092D18091E10080FF18C08091E20080FFD9
:1019F00014C08091E2008E7F8093E2008091E2002B
:101A000080618093E2008091D80080628093D8004A
:101A100019BC85E08093A90176D18091E10084FF13
:101A20002FC08091E20084FF2BC080E189BD82E15C
:101A300089BD09B400FEFDCF8091D8008F7D8093D1
:101A4000D8008091E1008F7E8093E1008091E200D8
:101A50008F7E8093E2008091E20081608093E200BB
:101A60008091A701882311F084E007C08091E300F2
:101A700087FD02C081E001C083E08093A90143D1CA
:101A80008091E10083FF22C08091E20083FF1EC0AD
:101A90008091E100877F8093E10082E08093A9013B
:101AA0001092A7018091E1008E7F8093E1008091E8
:101AB000E2008E7F8093E2008091E200806180935B
:101AC000E20042E060E080E003DE1DD1FF91EF9193
:101AD000BF91AF919F918F917F916F915F914F9146
:101AE0003F912F910F900FBE0F901F9018951F934D
:101AF000CF93DF9300D0CDB7DEB7EAEAF1E082EB17
:101B000091E02091F10021938E179F07D1F70E9459
:101B1000E2018091E80083FFE2C08091AA019091E8
:101B2000AB01492F50E04A30510508F0D8C0FA0106
:101B3000EA5AFF4FE9C2803899F0823809F0CFC0E5
:101B40008091AE018F70873008F0C9C08093E900A2
:101B50008091EB0085FB882780F91092E90001C095
:101B600080E09091E800977F9093E8008093F100E7
:101B70001092F1008EC0282F2D7F09F0B0C0823066
:101B800009F0ADC08091AC0181112AC08091AE01F5
:101B90008F702FEF280F263008F0A1C08093E90046
:101BA0002091EB0020FF1CC0933021F48091EB00CA
:101BB000806214C09091EB0090619093EB0021E063
:101BC00030E0A90102C0440F551F8A95E2F7409307
:101BD000EA001092EA008091EB0088608093EB00AD
:101BE0001092E9008091E800877F8093E800F6DD9D
:101BF00076C0811174C01091AC011F778091E30011
:101C00008078812B8093E3008091E800877F809328
:101C1000E800E4DD8091E80080FFFCCF8091E300E4
:101C200080688093E300111102C082E001C083E06C
:101C30008093A90154C08058823008F050C0609150
:101C4000AE017091AF01AE014F5F5F4F8091AC016B
:101C50009091AD010E94F503BC01892B09F43FC0AE
:101C60009091E800977F9093E80089819A81DFDA6C
:101C70008091E8008B778093E80031C0803879F557
:101C80008091E800877F8093E8008091A70180938E
:101C9000F1008091E8008E77A8CF811120C080915B
:101CA000AC019091AD0199270297CCF48091E800A6
:101CB000877F8093E8008091AC018093A7018EDD3F
:101CC0008091A701811106C08091E30087FD02C0C9
:101CD00081E001C084E08093A9010E94F702809115
:101CE000E80083FF0AC08091E800877F8093E800C6
:101CF0008091EB0080628093EB000F900F90DF915A
:101D0000CF911F9108950895CF938091A9018823C1
:101D100099F0C091E900CF709091EC00892F81700B
:101D200090FD80E8C82B1092E9008091E80083FDC7
:101D3000DEDECF70C093E900CF910895FC01808171
:101D40009181A281B38126B5A89B02C02F3F59F48F
:101D5000BA2FA92F982F8827BC01CD01620F711DC2
:101D6000811D911D08950196A11DB11DF1CF0F9305
:101D70001F93CF93DF93FC01E25BFF4F2081213063
:101D800019F4EA54F10902C0FC01B99623A1223FDB
:101D9000C1F52081213A21F0223A99F561E201C092
:101DA00069E1DF01A60FB11D4C9150E0542F44278B
:101DB00011962C91422B1E2FDF0120E030E07D9107
:101DC000372778E0E901CC0FDD1F37FF06C09E0101
:101DD00001E2202700E1302701C09E01715091F7F8
:101DE0007A2F711B761758F34217530741F4DC0121
:101DF000A15BBF4F9C919F5F9C9383EF01C084EFD9
:101E000083A3DF91CF911F910F910895FC01E60FFD
:101E1000F11D2385FC0130A93323A1F0F894E20FD2
:101E2000F11DE20FF11D638D748D789433E0660F20
:101E3000771F3A95E1F7CB0144E0969587954A954F
:101E4000E1F70895FC01EA57FF4F3081332329F170
:101E500037973081313011F4C59602C0865A9F4FB2
:101E6000F894220F2F5FFC01E20FF11D208130E07A
:101E7000322F22278181282B78943F70A8E7B5E084
:101E800049D1DC01CB012CE0B695A79597958795B4
:101E90002A95D1F7805E9C4F089580E090E00895E8
:101EA0009EE088E10FB6F894A895809360000FBE7D
:101EB0009093600081E084B990E19BB913BC93E0FA
:101EC00094BD95BD80936E0080E190E09093CD002D
:101ED0008093CC0082E08093C80080E98093C900A1
:101EE00086E08093CA0082EC8093810080E2809338
:101EF0006F001ADD0E9408017894C1E0A89504DF04
:101F00008091A9018430A9F4C093E9008091E80090
:101F100080FF0FC00E94680140E050E068E070E080
:101F200084E191E00E94C0048091E8008E77809364
:101F3000E800DFB7F89483EA91E000DFDFBF6B01D0
:101F40007C0187E0CC0CDD1CEE1CFF1C8A95D1F7D0
:101F500095E0F694E794D794C7949A95D1F7809139
:101F6000460190914701891318C0809148019091D2
:101F70004901A0914A01B0914B01A7019601281B8C
:101F8000390B4A0B5B0BDA01C901813A9648A14033
:101F9000B10578F010924C010CC080934701C092BB
:101FA0004801D0924901E0924A01F0924B01C0935E
:101FB0004C018DE491E0DBDE80919C0190919D01CC
:101FC000891318C080919E0190919F01A091A0015A
:101FD000B091A101A7019601281B390B4A0B5B0B9D
:101FE000DA01C901813A9648A140B10578F0109212
:101FF000A2010CC080939D01C0929E01D0929F01CE
:10200000E092A001F092A101C093A20180914C0145
:10201000811106C08091A201811102C028986ECF63
:102020008091000190910101A0910201B091030102
:10203000A7019601281B390B4A0B5B0BDA01C9017A
:1020400081309543AC40B10508F458CFC0920001EF
:10205000D0920101E0920201F092030185B18C2738
:1020600085B94CCFCF93DF93ECE1F1E0178A168A64
:10207000108E128E118E8EE0A7E3B1E0ED01199261
:102080008A95E9F711A612A613A614A615A616A6F8
:1020900017A610AA11AA12AA13AA14AA8AE4E1E5A3
:1020A000F1E0DF011D928A95E9F710929B011092F1
:1020B0009C0110929D0110929E0110929F0110921E
:1020C000A0011092A1011092A201DF91CF91089579
:1020D000052E97FB16F400940FD057FD05D029D09C
:1020E00007FC02D046F408C05095409530952195E4
:1020F0003F4F4F4F5F4F0895909580957095619534
:102100007F4F8F4F9F4F0895EE0FFF1F0590F49163
:10211000E02D0994A29FB001B39FC001A39F700D51
:10212000811D1124911DB29F700D811D1124911DDF
:102130000895A1E21A2EAA1BBB1BFD010DC0AA1F08
:10214000BB1FEE1FFF1FA217B307E407F50720F020
:10215000A21BB30BE40BF50B661F771F881F991F9B
:102160001A9469F760957095809590959B01AC01E4
:10217000BD01CF010895DC01CB01FC01F999FECF2F
:1021800006C0F2BDE1BDF89A319600B40D924150FF
:102190005040B8F70895F999FECF92BD81BDF89AE5
:1021A000992780B50895262FF999FECF92BD81BD5C
:1021B000F89A019700B4021639F01FBA20BD0FB685
:1021C000F894FA9AF99A0FBE0895DC01CB0102C087
:1021D0002D9105D041505040D8F70895262FF999F8
:1021E000FECF1FBA92BD81BD20BD0FB6F894FA9AFA
:0C21F000F99A0FBE01960895F894FFCFF5
:00000001FF
