:10000000E6C0000001C10000FFC00000FDC000000C
:10001000FBC00000F9C00000F7C00000F5C0000000
:10002000F3C00000F1C000000C94870CEDC000008C
:10003000EBC00000E9C00000E7C00000E5C0000020
:1000400024C30000E1C00000DFC00000DDC00000EC
:10005000DBC00000D9C00000D7C00000F1C2000022
:10006000D3C00000D1C00000CFC00000CDC0000050
:10007000CBC00000C9C00000C7C00000C5C0000060
:10008000C3C00000C1C00000BFC00000BDC0000070
:10009000BBC00000B9C00000B7C00000B5C0000080
:1000A000B3C00000B1C00000AFC00000710D910DE1
:1000B000450E910D450ECF0DF10D450E140E230E7C
:1000C0002803670072006500750065006C002E0053
:1000D0006F00720067003A006800690064007200F7
:1000E00063006A006F0079000000260352002F00B1
:1000F0004300200074006F002000500043002000E7
:100100004A006F00790073007400690063006B009F
:1001100000001603670072006500750065006C0042
:100120002E006F007200670000000403090409023A
:1001300022000101008019090400000103000000F1
:10014000092111010001226A00070581030800143A
:100150001201100100000008C016E80301000102AE
:10016000030105010904A101090185017508158034
:10017000257FA1000930093195028102C0A1000943
:1001800032093395028102C0A100093409350936CC
:1001900095038102C0A10206FF008502951809029D
:1001A000B102850395120903B10285049501090482
:1001B000B102850595010905B1028506950109067B
:1001C000B102850795010907B102C0C0150F1124BE
:1001D0001FBECFEFDAE0DEBFCDBF21E0A0E0B1E08F
:1001E00001C01D92A936B207E1F710E0C7EED0E0DA
:1001F00004C02197FE010E94510FC63ED107C9F7E6
:100200000E94740E0C94BA0FFBCEDF92EF92FF9215
:100210000F931F93CF93DF93D090590181E0809388
:100220001C016DE1E62E61E0F62E04E211E0C0E073
:10023000D0E0DD2009F444C080913C0190913D0163
:1002400020913E0130913F01D8011B96EC91F8942A
:10025000F0E0EE0FFF1FEC5BFE4F60817181789440
:10026000681B790B80912E0190E00C2E02C09595B1
:1002700087950A94E2F780FF03C071956195710933
:10028000CB01770FAA0BBB0BBC01CD0147E0660F7A
:10029000771F881F991F4A95D1F7032E000C440B36
:1002A000550B0E94350F2038EFEF3E074E075E07D3
:1002B0004CF020383105410551052CF02FE703C0E3
:1002C00020E001C020E8D7012D937D0121960F5F2A
:1002D0001F4FC730D10509F0ACCFDF91CF911F91EF
:1002E0000F91FF90EF90DF90089542E150E060E0C1
:1002F00070E084E291E00E94790F809125018031C5
:1003000009F042C08091280190912901805D9740B9
:1003100081349F41C8F580912A0190912B01845F1F
:100320009140853C994080F580912C0190912D0160
:100330000A978F3A9B4040F5EFE2F1E081918730D8
:1003400018F581E0E633F807C9F78091280190910C
:100350002901880F991F90933B0180933A01809166
:100360002A0190912B01880F991F90933D01809352
:100370003C0180912C0190912D01880F991F909341
:100380003F0180933E01089580E180932501109202
:1003900026018CEA9DE090932901809328018CED41
:1003A00095E090932B0180932A0184EF91E0909344
:1003B0002D0180932C0110922E01EFE2F1E080E0FC
:1003C00081938F5F8730E1F7C0CFCF93DF931F9288
:1003D000CDB7DEB78091E80083FF29C1809162012B
:1003E000813021F0893009F480C021C18091610100
:1003F000813A09F01CC180916301909164019927B1
:100400008230910591F08330910509F461C0019724
:1004100009F00DC1FADE8091E800877F8093E80043
:1004200068E070E08CE191E04CC04091590182E0BD
:10043000809304018091360190913701A091380199
:10044000B09139018093080190930901A0930A01AA
:10045000B0930B01442349F0F8942091420130916C
:1004600043017894922F832F02C090E080E0909314
:100470000C0180930D01AEE0B1E024E231E04423B1
:1004800069F0F9018385F894E82FF0E0EE0FFF1F83
:10049000EC5BFE4F80819181789402C080E090E017
:1004A0008D939D932F5F3F4FF1E0AC31BF0739F73C
:1004B0008091E800877F8093E80068E170E084E045
:1004C00091E044D58091E8008B778093E800AFC03D
:1004D00083E0809324018091E800877F8093E80087
:1004E00062E170E084E291E0ECCF809161018132C1
:1004F00009F09DC0809163018983853009F46FC044
:1005000090F5833009F446C0843009F090C08091A2
:10051000E800877F8093E80061E070E0CE010196FB
:10052000DBD58091E8008E778093E80080E18093AE
:100530002501109226018CEA9DE090932901809379
:1005400028018CED95E090932B0180932A0184EF94
:1005500091E090932D0180932C0110922E01EFE2F7
:10056000F1E080E025C0863009F44AC0873009F008
:100570005EC08091E800877F8093E80061E070E0D2
:10058000CE010196A9D58091E8008E778093E8008E
:1005900035CD4DC08091E800877F8093E80062E10F
:1005A00070E084E291E098D58091E8008E778DCF5D
:1005B00081938F5F8730E1F788E59BE190933B0162
:1005C00080933A0188EB9BE090933D0180933C013E
:1005D00088EE93E090933F0180933E0128C0809184
:1005E000E800877F8093E80061E070E0CE0101962B
:1005F00073D58091E8008E778093E80076DE17C08F
:100600008091E800877F8093E80061E070E0CE0190
:10061000019662D58091E8008E778093E80042E1F0
:1006200050E060E070E084E291E00E94A30F0F9040
:10063000DF91CF91089542E061EC81E00C943E0B94
:100640001F920F920FB60F9211248F939F93AF9327
:10065000BF9380915A0190915B01A0915C01B09190
:100660005D010196A11DB11D80935A0190935B011C
:10067000A0935C01B0935D01BF91AF919F918F9169
:100680000F900FBE0F901F9018951F920F920FB6EC
:100690000F9211242F933F934F935F938F939F93C8
:1006A000EF93FF938091860090918700789420913A
:1006B000260120FD2DC02091400130914101AC0167
:1006C000421B530B909341018093400180913A016A
:1006D00090913B014817590760F0509343014093B4
:1006E000420110925301809152018F5F8093520119
:1006F0000FC080915301873058F4E82FF0E0EE0FDF
:10070000FF1FEC5BFE4F518340838F5F809353014B
:10071000FF91EF919F918F915F914F913F912F9119
:100720000F900FBE0F901F901895CF92DF92EF920F
:10073000FF920F931F93811105C080E291EAA7E019
:10074000B0E004C080E593ECA0E0B0E000910001CF
:100750001091010120910201309103016A017B0196
:10076000C01AD10AE20AF30A8C159D05AE05BF0531
:1007700060F4409300015093010160930201709373
:10078000030195B181E0892785B91F910F91FF90F1
:10079000EF90DF90CF900895DA01292F332723308F
:1007A000310519F170F421303105C1F022303105E5
:1007B00009F03CC08EE291E08D939C9382E290E040
:1007C00008952132310559F12232310579F582E659
:1007D00091E08D939C938AE690E0089580E591E006
:1007E0008D939C9382E190E0089599278130910543
:1007F00061F040F08230910579F00397B9F4E0ECB4
:10080000F0E005C0EAE2F1E002C0E2E1F1E0ED93E0
:10081000FC93849190E00895EAEEF0E0F8CF80E454
:1008200091E08D939C9389E090E0089580E090E0C2
:100830000895EF92FF920F931F93CF93DF93EC01F4
:100840008B01C1D781112DC00115110529F0F801C7
:1008500080819181C81BD90BE12CF12C209701F1EB
:100860008091E80085FD15C08091E8008B7780932A
:10087000E8000115110549F0F80180819181E80E29
:10088000F91EF182E08285E00CC09DD7882331F308
:1008900008C08091F1002197FFEFEF1AFF0ADECF29
:1008A00080E0DF91CF911F910F91FF90EF9008951D
:1008B000EF92FF920F931F93CF93DF93EC018B0185
:1008C00082D781112DC00115110529F0F801808111
:1008D0009181C81BD90BE12CF12C209701F180915B
:1008E000E80085FD15C08091E8008E778093E800D0
:1008F0000115110549F0F80180819181E80EF91E7A
:10090000F182E08285E00CC05ED7882331F308C015
:100910001092F1002197FFEFEF1AFF0ADECF80E07F
:10092000DF91CF911F910F91FF90EF900895CF929B
:10093000DF92EF92FF920F931F93CF93DF93EC011F
:100940008B017A0140D7811134C0E114F10439F0F0
:10095000F70180819181081B190BC80FD91FC12C89
:10096000D12C0115110521F18091E80085FD17C0FA
:100970008091E8008E778093E8000E945A0EE1147F
:10098000F10449F0F70180819181C80ED91ED1820E
:10099000C08285E00EC017D7882319F30AC0899159
:1009A0008093F10001501109FFEFCF1ADF0AD9CF70
:1009B00080E0DF91CF911F910F91FF90EF90DF903A
:1009C000CF900895CF92DF92EF92FF920F931F93F3
:1009D000CF93DF93EC018B017A01F5D6811139C0F9
:1009E000C8010197C80FD91FE114F10439F0F701CC
:1009F00080819181081B190BC81BD90BC12CD12CEC
:100A00000115110529F18091E80085FD17C080913D
:100A1000E8008E778093E8000E945A0EE114F104FA
:100A200049F0F70180819181C80ED91ED182C08220
:100A300085E00FC0C8D6882319F30BC08881809346
:100A4000F100219701501109FFEFCF1ADF0AD8CF2B
:100A500080E0DF91CF911F910F91FF90EF90DF9099
:100A6000CF900895CF92DF92EF92FF920F931F9352
:100A7000CF93DF93EC018B017A01A5D6811134C0AD
:100A8000E114F10439F0F70180819181081B190B01
:100A9000C80FD91FC12CD12C0115110521F180914E
:100AA000E80085FD17C08091E8008B778093E8000F
:100AB0000E945A0EE114F10449F0F70180819181FE
:100AC000C80ED91ED182C08285E00EC07CD6882394
:100AD00019F30AC08091F100899301501109FFEFC9
:100AE000CF1ADF0AD9CF80E0DF91CF911F910F910C
:100AF000FF90EF90DF90CF900895CF92DF92EF922A
:100B0000FF920F931F93CF93DF93EC018B017A0138
:100B10005AD6811139C0C8010197C80FD91FE114F5
:100B2000F10439F0F70180819181081B190BC81B72
:100B3000D90BC12CD12C0115110529F18091E800A8
:100B400085FD17C08091E8008B778093E8000E94B4
:100B50005A0EE114F10449F0F70180819181C80E29
:100B6000D91ED182C08285E00FC02DD6882319F30B
:100B70000BC08091F1008883219701501109FFEF8C
:100B8000CF1ADF0AD8CF80E0DF91CF911F910F916C
:100B9000FF90EF90DF90CF900895CF92DF92EF9289
:100BA000FF920F931F93CF93DF93EC018B017A0198
:100BB0000AD6811136C0E114F10439F0F7018081C1
:100BC0009181081B190BC80FD91FC12CD12C0115FD
:100BD000110531F18091E80085FD17C08091E80092
:100BE0008E778093E8000E945A0EE114F10449F0D8
:100BF000F70180819181C80ED91ED182C08285E023
:100C000010C0E1D5882319F30CC0FE0184918093B4
:100C1000F100219601501109FFEFCF1ADF0AD7CF5B
:100C200080E0DF91CF911F910F91FF90EF90DF90C7
:100C3000CF900895CF92DF92EF92FF920F931F9380
:100C4000CF93DF93EC018B017A01BDD581113AC0BE
:100C5000C8010197C80FD91FE114F10439F0F70159
:100C600080819181081B190BC81BD90BC12CD12C79
:100C70000115110531F18091E80085FD17C08091C3
:100C8000E8008E778093E8000E945A0EE114F10488
:100C900049F0F70180819181C80ED91ED182C082AE
:100CA00085E010C090D5882319F30CC0FE01849113
:100CB0008093F100219701501109FFEFCF1ADF0A4D
:100CC000D7CF80E0DF91CF911F910F91FF90EF90F0
:100CD000DF90CF900895CF92DF92EF92FF920F9323
:100CE0001F93CF93DF93EC018B017A016CD58111B7
:100CF00036C0E114F10439F0F70180819181081BBD
:100D0000190BC80FD91FC12CD12C0115110531F1B8
:100D10008091E80085FD16C08091E8008E77809371
:100D2000E800C8D7E114F10449F0F701808191810E
:100D3000C80ED91ED182C08285E011C044D5882357
:100D400021F30DC0CE010E94890F8093F1002196FE
:100D500001501109FFEFCF1ADF0AD7CF80E0DF91F2
:100D6000CF911F910F91FF90EF90DF90CF9008955A
:100D7000CF92DF92EF92FF920F931F93CF93DF9367
:100D8000EC018B017A011FD581113AC0C80101978E
:100D9000C80FD91FE114F10439F0F7018081918166
:100DA000081B190BC81BD90BC12CD12C011511051F
:100DB00031F18091E80085FD16C08091E8008E77C2
:100DC0008093E80077D7E114F10449F0F7018081BE
:100DD0009181C80ED91ED182C08285E011C0F3D4A2
:100DE000882321F30DC0CE010E94890F8093F1006A
:100DF000219701501109FFEFCF1ADF0AD7CF80E00A
:100E0000DF91CF911F910F91FF90EF90DF90CF90E6
:100E10000895CF92DF92EF92FF920F931F93CF939B
:100E2000DF93EC018B017A01CED4811136C0E1143D
:100E3000F10439F0F70180819181081B190BC80F6B
:100E4000D91FC12CD12C0115110531F18091E80079
:100E500085FD16C08091E8008B778093E8002AD743
:100E6000E114F10449F0F70180819181C80ED91E87
:100E7000D182C08285E011C0A6D4882321F30DC0A1
:100E80006091F100CE010E94910F2196015011094D
:100E9000FFEFCF1ADF0AD7CF80E0DF91CF911F910C
:100EA0000F91FF90EF90DF90CF900895CF92DF9257
:100EB000EF92FF920F931F93CF93DF93EC018B017F
:100EC0007A0181D4811139C0C8010197C80FD91F97
:100ED000E114F10439F0F70180819181081B190BAD
:100EE000C81BD90BC12CD12C0115110529F18091FA
:100EF000E80085FD16C08091E8008B778093E800BC
:100F0000D9D6E114F10449F0F70180819181C80E2E
:100F1000D91ED182C08285E010C055D4882321F328
:100F20000CC06091F100CE01FCD72197015011094E
:100F3000FFEFCF1ADF0AD8CF80E0DF91CF911F916A
:100F40000F91FF90EF90DF90CF900895209167016F
:100F5000309168012617370748F06115710539F49B
:100F60002091E8002E772093E80001C0B901FC0130
:100F700020E06115710579F1809160018823F1F11C
:100F80008530F1F18091E80083FD3CC08091E8005C
:100F900082FD2EC08091E80080FFEBCF2091F3000E
:100FA0008091F20090E0922B6115710551F088302C
:100FB000910538F421912093F10061507109019657
:100FC000F3CF21E0089709F020E08091E8008E77C8
:100FD0008093E800CECF2111CFCF0AC0809160016D
:100FE000882361F0853061F08091E80083FD0AC0BC
:100FF0008091E80082FFF2CF80E0089582E00895BA
:1010000083E0089581E008959B0121503109820F0A
:10101000931F20916701309168012617370748F028
:101020006115710539F42091E8002E772093E800CE
:1010300001C0B90140E061157105A9F1209160017D
:10104000222309F443C0253009F442C02091E8006E
:1010500023FD40C02091E80022FD32C02091E8002D
:1010600020FFE9CF4091F3002091F20030E0342BD3
:101070006115710569F02830310550F4FC0140819B
:101080004093F1000197615071092F5F3F4FF0CFFE
:1010900041E02830310509F040E02091E8002E774A
:1010A0002093E800C8CF4111C9CF0AC080916001E8
:1010B000882361F0853061F08091E80083FD0AC0EB
:1010C0008091E80082FFF2CF80E0089582E00895E9
:1010D00083E0089581E008956115710529F4209158
:1010E000E8002B772093E800FC016115710541F1C0
:1010F00080916001882361F1853061F18091E80081
:1011000083FD24C08091E80082FFEFCF2091F3009F
:101110008091F20090E0922B892B31F08091F100C8
:1011200081936150710991F78091E8008B778093EA
:10113000E800DBCF80916001882351F0853051F0C9
:101140008091E80080FFF6CF80E0089581E0089567
:1011500082E0089583E008959B0121503109820FB8
:10116000931F6115710529F42091E8002B772093D6
:10117000E8006115710529F120916001222349F1F0
:10118000253049F12091E80023FD21C02091E8009D
:1011900022FFEFCF4091F3002091F20030E0342B9A
:1011A000232B11F32091F100FC0120830197615062
:1011B000710981F7D9CF80916001882351F0853082
:1011C00051F08091E80080FFF6CF80E0089581E043
:1011D000089582E0089583E0089520916701309199
:1011E00068012617370748F06115710539F4209119
:1011F000E8002E772093E80001C0B901FC0120E04F
:101200006115710591F180916001882309F440C056
:10121000853009F43FC08091E80083FD3DC0809196
:10122000E80082FD2FC08091E80080FFE9CF209187
:10123000F3008091F20090E0922B6115710559F056
:101240008830910540F424912093F100319661504B
:1012500071090196F2CF21E0089709F020E0809112
:10126000E8008E778093E800CBCF2111CCCF0AC065
:1012700080916001882361F0853061F08091E80001
:1012800083FD0AC08091E80082FFF2CF80E00895DC
:1012900082E0089583E0089581E00895FB0131978D
:1012A0008E0F9F1F20916701309168012617370725
:1012B00048F06115710539F42091E8002E772093EC
:1012C000E80001C0B90140E061157105A9F1209164
:1012D0006001222309F443C0253009F442C0209163
:1012E000E80023FD40C02091E80022FD32C020919B
:1012F000E80020FFE9CF4091F3002091F20030E0B8
:10130000342B6115710569F02830310550F4FC016A
:1013100044914093F1000197615071092F5F3F4F55
:10132000F0CF41E02830310509F040E02091E8009D
:101330002E772093E800C8CF4111C9CF0AC0809111
:101340006001882361F0853061F08091E80083FDC1
:101350000AC08091E80082FFF2CF80E0089582E029
:10136000089583E0089581E00895CF92DF92EF928F
:10137000FF920F931F93CF93DF93EB0120916701AF
:10138000309168012617370740F0209739F42091F3
:10139000E8002E772093E80001C0E9016C0120E00D
:1013A0002097D9F180916001882309F449C08530E4
:1013B00009F448C08091E80083FD46C08091E800B0
:1013C00082FD38C08091E80080FFEACF8091F30071
:1013D0000091F20010E0182B7801C701801B910BDF
:1013E0008C0D9D1D209761F038E0E316F10440F468
:1013F00090D58093F10021972FEFE21AF20AEDCFFA
:1014000021E038E0E316F10409F020E03091E80033
:101410003E773093E8006C01C3CF2111C3CF0AC0DF
:1014200080916001882361F0853061F08091E8004F
:1014300083FD0AC08091E80082FFF2CF80E005C002
:1014400082E003C083E001C081E0DF91CF911F9172
:101450000F91FF90EF90DF90CF900895CF92DF92A1
:10146000EF92FF920F931F93CF93DF93EB016B01EA
:1014700021E0C21AD108C80ED91E8091670190914F
:1014800068018617970740F0209739F48091E800AB
:101490008E778093E80001C0EC0120E02097E1F115
:1014A00080916001882309F44AC0853009F449C05D
:1014B0008091E80083FD47C08091E80082FD39C03B
:1014C0008091E80080FFEACF8091F3000091F20064
:1014D00010E0182B7E01C7018C1B9D0B8C0D9D1DF0
:1014E000E114F10461F00830110548F412D580933D
:1014F000F10081E0E81AF1080F5F1F4FECCF21E007
:101500000830110509F020E03091E8003E77309373
:10151000E8006C01E701C2CF2111C2CF0AC080915F
:101520006001882361F0853061F08091E80083FDDF
:101530000AC08091E80082FFF2CF80E005C082E01F
:1015400003C083E001C081E0DF91CF911F910F9133
:10155000FF90EF90DF90CF9008950F931F93CF935C
:10156000DF93EB01209729F42091E8002B7720935B
:10157000E8008C01209751F180916001882371F17E
:10158000853071F18091E80083FD26C08091E800EC
:1015900082FFF0CF2091F3008091F20090E0922B37
:1015A000892B41F06091F100C801BBD40F5F1F4F40
:1015B000219781F78091E8008B778093E800DACF5C
:1015C00080916001882351F0853051F08091E800CE
:1015D00080FFF6CF80E005C081E003C082E001C05B
:1015E00083E0DF91CF911F910F9108950F931F9387
:1015F000CF93DF93EB018B0101501109080F191FE5
:10160000209729F48091E8008B778093E800209759
:1016100029F180916001882349F1853049F1809159
:10162000E80083FD21C08091E80082FFF0CF209187
:10163000F3008091F20090E0922B892B19F36091D6
:10164000F100C8016ED401501109219781F7DACF5A
:1016500080916001882351F0853051F08091E8003D
:1016600080FFF6CF80E005C081E003C082E001C0CA
:1016700083E0DF91CF911F910F910895982F9730BC
:1016800068F59093E900981739F07091EC0020917B
:10169000ED005091F00003C0242F762F50E021FD83
:1016A00002C09F5FECCF3091EB003E7F3093EB00A8
:1016B0003091ED003D7F3093ED003091EB003160D3
:1016C0003093EB007093EC002093ED005093F0000A
:1016D0002091EE0027FDE5CF80E008958F70809384
:1016E000E90081E008950F931F93CF93DF93062FB6
:1016F000EC0110E0101771F16881611103C01F5FE8
:101700002596F8CF2C81A981BA819B81862F8F7075
:10171000873010F080E01FC0223010F442E001C09A
:1017200046E0E8E0F0E020E0EA17FB0720F42F5F56
:10173000EE0FFF1FF9CF2295207F422B50E4959F9B
:1017400090011124661F6627661F622B97DF8111A7
:10175000D6CFE0CF81E0DF91CF911F910F91089517
:101760001092F40080E08093E9001092F000109253
:10177000E8001092ED009091EB009E7F9093EB00BB
:101780008F5F873081F708958091610187FF11C0D5
:101790008091E80082FD05C0809160018111F8CF41
:1017A00011C08091E8008B770BC080916001882385
:1017B00049F08091E80080FFF8CF8091E8008E77B3
:1017C0008093E80008952091E4003091E50095E6CB
:1017D0004091EC00842F817040FF23C08091E8008D
:1017E00080FD1DC080916001882399F0853099F0BB
:1017F0008091EB0085FD11C04091E4005091E5001F
:101800002417350729F3915011F09A01E1CF84E0B4
:10181000089582E0089583E0089581E0089580E0CE
:1018200008954091E80042FFDDCF089563D06AD06B
:10183000E0EEF0E0808181608083E8EDF0E080817F
:101840008F77808319BCA7EDB0E08C918E7F8C934D
:1018500080818F7E808310925F0108950F931F9384
:10186000CF93DF9347D04ED0C8EDD0E088818F77FB
:10187000888388818068888388818F7D888319BC6C
:101880001092600110925E0100EE10E0F80180817C
:101890008B7F808388818160888342E060E080E084
:1018A000EDDEE1EEF0E080818E7F8083E2EEF0E01D
:1018B000808181608083808188608083F80180815D
:1018C0008E7F8083888180618883DF91CF911F9193
:1018D0000F910895E8EDF0E080818F7E8083E7ED41
:1018E000F0E080818160808384E082BF81E080932A
:1018F0005F01B4CFE8EDF0E080818E7F80831092AD
:10190000E20008951092DA001092E10008951F920B
:101910000F920FB60F9211242F933F934F935F9323
:101920006F937F938F939F93AF93BF93EF93FF93A7
:101930008091E10082FF0AC08091E20082FF06C030
:101940008091E1008B7F8093E100B3D18091DA0038
:1019500080FF1DC08091D80080FF19C08091DA00FF
:101960008E7F8093DA008091D90080FF0CC080E1E7
:1019700089BD82E189BD09B400FEFDCF81E080937D
:10198000600197D104C019BC1092600192D180917E
:10199000E10080FF18C08091E20080FF14C08091B8
:1019A000E2008E7F8093E2008091E200806180936C
:1019B000E2008091D80080628093D80019BC85E055
:1019C0008093600176D18091E10084FF2FC08091E7
:1019D000E20084FF2BC080E189BD82E189BD09B4AA
:1019E00000FEFDCF8091D8008F7D8093D80080913C
:1019F000E1008F7E8093E1008091E2008F7E8093F2
:101A0000E2008091E20081608093E20080915E01BB
:101A1000882311F084E007C08091E30087FD02C0B5
:101A200081E001C083E08093600143D18091E100B7
:101A300083FF22C08091E20083FF1EC08091E100FD
:101A4000877F8093E10082E08093600110925E01C5
:101A50008091E1008E7F8093E1008091E2008E7F93
:101A60008093E2008091E20080618093E20042E096
:101A700060E080E003DE1DD1FF91EF91BF91AF9157
:101A80009F918F917F916F915F914F913F912F9196
:101A90000F900FBE0F901F9018951F93CF93DF9359
:101AA00000D0CDB7DEB7E1E6F1E089E691E0209124
:101AB000F10021938E179F07D1F70E94E5018091D5
:101AC000E80083FFE2C08091610190916201492F9B
:101AD00050E04A30510508F0D8C0FA01EA5AFF4FE9
:101AE000E0C1803899F0823809F0CFC0809165015B
:101AF0008F70873008F0C9C08093E9008091EB00B7
:101B000085FB882780F91092E90001C080E0909160
:101B1000E800977F9093E8008093F1001092F10025
:101B20008EC0282F2D7F09F0B0C0823009F0ADC0E3
:101B30008091630181112AC0809165018F702FEF20
:101B4000280F263008F0A1C08093E9002091EB0017
:101B500020FF1CC0933021F48091EB00806214C000
:101B60009091EB0090619093EB0021E030E0A901AF
:101B700002C0440F551F8A95E2F74093EA00109285
:101B8000EA008091EB0088608093EB001092E900FE
:101B90008091E800877F8093E800F6DD76C08111B0
:101BA00074C0109163011F778091E3008078812BCE
:101BB0008093E3008091E800877F8093E800E4DD74
:101BC0008091E80080FFFCCF8091E30080688093E3
:101BD000E300111102C082E001C083E08093600144
:101BE00054C08058823008F050C0609165017091F7
:101BF0006601AE014F5F5F4F809163019091640178
:101C00000E94CC03BC01892B09F43FC09091E800ED
:101C1000977F9093E80089819A81DFDA8091E800CC
:101C20008B778093E80031C0803879F58091E800A7
:101C3000877F8093E80080915E018093F10080911E
:101C4000E8008E77A8CF811120C080916301909128
:101C5000640199270297CCF48091E800877F8093F4
:101C6000E8008091630180935E018EDD80915E01CA
:101C7000811106C08091E30087FD02C081E001C0B0
:101C800084E0809360010E941B038091E80083FF41
:101C90000AC08091E800877F8093E8008091EB0084
:101CA00080628093EB000F900F90DF91CF911F9196
:101CB00008950895CF9380916001882399F0C09191
:101CC000E900CF709091EC00892F817090FD80E841
:101CD000C82B1092E9008091E80083FDDEDECF7012
:101CE000C093E900CF9108959EE088E10FB6F89483
:101CF000A895809360000FBE9093600081E084B946
:101D000090E19BB913BC93E094BD95BD80936E00A8
:101D100082EC8093810080E894E8AEE1B0E08093AB
:101D2000360190933701A0933801B093390180E2D6
:101D300080936F00CFDD0E9475017894C1E0A89573
:101D4000B9DF809160018430A9F4C093E9008091EB
:101D5000E80080FF0FC00E94050140E050E068E00D
:101D600070E08CE191E00E9497048091E8008E770A
:101D70008093E8009FB7F89440915A0150915B011D
:101D800060915C0170915D0186B5A89B03C08F3F97
:101D900009F046C09FBF762F652F542F4427480F68
:101DA000511D611D711D27E0440F551F661F771FD0
:101DB0002A95D1F735E076956795579547953A95E9
:101DC000D1F78091520190915401891318C08091EC
:101DD000550190915601A0915701B09158018A0187
:101DE0009B01081B190B2A0B3B0BD901C801813A37
:101DF0009648A140B10578F0109259010CC080932B
:101E000054014093550150935601609357017093CC
:101E10005801C0935901809159010E9495038FCFB9
:101E20004F5F5F4F6F4F7F4FB5CFCF93DF93E4E2AC
:101E3000F1E0178A168A118E108E138E128E158E6F
:101E4000148E178E168E8EE0A4E4B1E0ED01199287
:101E50008A95E9F716A617A610AA11AA12AA13AA1C
:101E600014AA15AADF91CF910895052E97FB16F4B9
:101E700000940FD057FD05D01AD007FC02D046F4CD
:101E800008C050954095309521953F4F4F4F5F4F7B
:101E9000089590958095709561957F4F8F4F9F4FD6
:101EA0000895EE0FFF1F0590F491E02D0994A1E233
:101EB0001A2EAA1BBB1BFD010DC0AA1FBB1FEE1FC4
:101EC000FF1FA217B307E407F50720F0A21BB30B0F
:101ED000E40BF50B661F771F881F991F1A9469F78B
:101EE00060957095809590959B01AC01BD01CF01E7
:101EF0000895DC01CB01FC01F999FECF06C0F2BDCB
:101F0000E1BDF89A319600B40D9241505040B8F7B7
:101F10000895F999FECF92BD81BDF89A992780B5B1
:101F20000895262FF999FECF92BD81BDF89A0197A9
:101F300000B4021639F01FBA20BD0FB6F894FA9A11
:101F4000F99A0FBE0895DC01CB0102C02D9105D096
:101F500041505040D8F70895262FF999FECF1FBA67
:101F600092BD81BD20BD0FB6F894FA9AF99A0FBEC2
:081F700001960895F894FFCFDB
:00000001FF
