:1000000095C0B9C08FC4B7C0B6C080C2B4C0B3C0B9
:10001000B2C0B1C0B0C0AFC0AEC0ADC09CC20501DF
:100020000904A101090185017508150026FF0035A5
:100030000046FF00A1000930093195028102C0A1EC
:10004000000932093395028102C0A1000934093543
:10005000093695038102C0A1020600FF85029510B2
:100060000900B102850395120903B10285049501C7
:100070000904B102850595010905B10285069501BE
:100080000906B102850795010907B102C0C009023E
:100090002200010100A01909040000010300000072
:1000A00009210101000122700007058103080014E5
:1000B00012011001FF000008C016E8030001010250
:1000C00003012803670072006500750065006C007D
:1000D0002E006F00720067003A006800690064003B
:1000E000720063006A006F007900260352002F003F
:1000F0004300200074006F002000500043002000E7
:100100004A006F00790073007400690063006B009F
:100110001603670072006500750065006C002E0014
:100120006F007200670004030904C40611241FBE97
:10013000CFE5D2E0DEBFCDBF10E0A0E6B0E0E4E066
:10014000FFE002C005900D92A236B107D9F720E07A
:10015000A2E6B0E001C01D92AD3EB207E1F710E0AB
:10016000C6E9D0E003C02197FE0194D6C539D10776
:10017000D1F76FD5C5C644CFBF92CF92DF92EF9231
:10018000FF920F931F93CF93DF93B090B10081E064
:10019000809379007AE7E72E70E0F72E01E810E00F
:1001A000C0E0D0E0E1E2CE2ED12C4C2FBB2009F4F0
:1001B00056C0E0918700F09188002091890030912D
:1001C0008A008091B1008823B9F0D8011B968C91E8
:1001D000F894A82FB0E0AA0FBB1FAF57BF4F5B9694
:1001E0008D919C915C9778949695982F88279795F8
:1001F0008795B601FDD502C060E070E06E1B7F0BF5
:1002000080918B0090E002C0959587954A95E2F722
:1002100080FF03C0719561957109CB01770FAA0B1F
:10022000BB0BBC01CD0147E0660F771F881F991FEC
:100230004A95D1F7032E000C440B550B0FD6DA016B
:10024000C90180589F4FAF4FBF4FB7FD0AC08F3FC6
:100250009105A105B10509F034F4282F05C020E867
:1002600003C020E001C02FEFF70121937F01219609
:100270000F5F1F4FC730D10509F097CFDF91CF91A6
:100280001F910F91FF90EF90DF90CF90BF90089556
:1002900042E150E060E070E081E890E00AD68091B1
:1002A0008200813131F58091850090918600805DDA
:1002B000974081349F41E8F48091870090918800B5
:1002C000845F9140853C9940A0F480918900909191
:1002D0008A000A978F3A9B4060F4ECE8F0E0819145
:1002E000873038F480E0E339F807C9F781E890E017
:1002F00091C481E180938200109283008CEA9DE09A
:1003000090938600809385008CED95E09093880013
:100310008093870086E292E090938A008093890020
:1003200010928B00ECE8F0E080E081938F5F8730E3
:10033000E1F7DCCF1F93CF93DF93C0916700CC230D
:10034000F1F0DC2F6C1708F4D62FBC011091680077
:10035000812F90E04D2F50E08F579F4FA1D51D0F5B
:1003600010936800CD1BC0936700C11103C081E8E2
:1003700090E050D481E0CC2319F080E001C081E00E
:10038000DF91CF911F9108950F931F93CF93DF9328
:10039000DC012C912076203209F0B2C0FC01818171
:1003A000813009F056C08281823079F0833009F4BF
:1003B00046C0813009F0A4C0DFDE89E790E0909369
:1003C000D2008093D10088E09CC080936900809126
:1003D000B10080936A00CBE6D0E021E830E001E292
:1003E00010E080916A008823C1F08091B1008823D9
:1003F000A1F0D9011B96EC91F894F0E0EE0FFF1FED
:10040000EF57FF4F838D948D78949695982F88277A
:1004100097958795B801ECD402C060E070E06993CD
:1004200079932F5F3F4FB0E0C937DB07D1F689E6FC
:1004300090E09093D2008093D10080E162C08093DD
:10044000810081E890E09093D2008093D10082E116
:1004500058C0893009F045C082818530C1F110F55E
:10046000833031F1843009F04BC081E18093820008
:10047000109283008CEA9DE0909386008093850023
:100480008CED95E0909388008093870086E292E05F
:1004900090938A008093890010928B00ECE8F0E042
:1004A00080E00DC08630A9F0873051F5A7CD28C077
:1004B0001092680082E1809367008FEF22C08193E1
:1004C0008F5F8730E1F781E890E0A4D319C0E0DEC8
:1004D00017C042E150E060E070E081E890E0F9D4BC
:1004E0000FC0823041F486E690E09093D200809372
:1004F000D10081E006C08A3019F4838180936600C0
:1005000080E0DF91CF911F910F9108951F920F927C
:100510000FB60F9211248F939F93AF93BF93809147
:10052000B2009091B300A091B400B091B5000196D3
:10053000A11DB11D8093B2009093B300A093B400AD
:10054000B093B500BF91AF919F918F910F900FBE67
:100550000F901F9018951F920F920FB60F921124B3
:100560002F933F934F935F936F937F938F939F93BB
:10057000AF93BF93EF93FF9382EB90E031D326B319
:100580003FE43EB9789422FB332730F9209199005B
:10059000321771F120919A0030919B00AB01421B00
:1005A000530B70939B0060939A00209197003091B9
:1005B00098004217530740F01092AA008091AB00B8
:1005C0008F5F8093AB0014C02091AA00273080F485
:1005D000F894E091AA00F0E0EE0FFF1FEF57FF4FF5
:1005E000548F438F78948091AA008F5F8093AA00E4
:1005F000FF91EF91BF91AF919F918F917F916F91FB
:100600005F914F913F912F910F900FBE0F901F90D0
:100610001895CF93C62F2091C10024FF07C03091B9
:10062000C20028E823272093C20003C02AE52093B4
:10063000C1002C2FFC01A3ECB0E081918D932150DF
:100640001216DCF36C2F83EC90E055D1CC5FC09395
:10065000C100CF910895CF93DF936091D300635091
:1006600067FDCDC08091D000CCE0D0E0C81BD1099F
:10067000C952DF4F8091CF008D3209F0AFC0683092
:1006800009F0BBC083EC8093B6008AE580936100DB
:100690001092CE008881807631F0CE0175DE8F3FDA
:1006A00009F48BC091C09A811092BF008981811199
:1006B00006C01092C0002FEB30E082E079C0853098
:1006C00019F49093D40071C0863009F058C08B8122
:1006D000813041F480EB90E09093D2008093D10080
:1006E00082E149C0823041F48EE890E09093D200DC
:1006F0008093D10082E23FC0833041F5911108C060
:1007000086E291E09093D2008093D10084E033C0E0
:10071000913041F480E191E09093D2008093D10038
:1007200086E129C0923041F48AEE90E09093D200A5
:100730008093D10086E21FC09330E1F482EC90E018
:100740009093D2008093D10088E215C0813241F4A9
:1007500080EA90E09093D2008093D10089E00BC0B2
:10076000823241F48EE190E09093D2008093D100E8
:1007700080E701C080E090E49093CE0025C08830EF
:1007800069F0893019F49093D6000FC08A3049F08F
:100790008B3059F48BE48093C20007C026ED30E023
:1007A00002C02FEB30E081E003C02FEB30E080E0AF
:1007B0003093D2002093D10007C0988197FD8E819D
:1007C00090E89093CE0007C09F81911104C09E8154
:1007D000981708F4892F809360000FC08091CE0095
:1007E00087FF0BC0CE01A6DD8F3F21F48EE1809301
:1007F000610003C08111109260001092D3008091BB
:10080000610084FF4BC0809160008F3F09F446C0B7
:10081000C82F893008F0C8E08C1B8093600090914D
:10082000B60088E889278093B600CC2359F18091DF
:10083000D1009091D2002091CE0026FF12C0A6EBED
:10084000B0E02C2FAC01465B5040FA01EA0FFB1FD1
:10085000E4911196EC931197215011962111F5CF47
:1008600008C0E7EBF0E0DC012C2F3D9131932150E3
:10087000E1F701962FEF2C0F820F911D9093D2007C
:100880008093D1006C2F87EB90E035D0CC5FCC30DB
:1008900019F08FEF80936000C093610084E196B3FC
:1008A000987131F48150D9F71092D4001092CD0094
:1008B000DF91CF910895AC9A8BB780628BBFE1EC4A
:1008C000F0E08BE481838AE580830895A82FB92F17
:1008D00080E090E041E050EA609530E009C02D9161
:1008E00082279795879510F084279527305EC8F367
:1008F0006F5FA8F30895EADF8D939D930895A6E0B6
:1009000088279927AA9569F00197E1F3B399FCCF5D
:10091000B39BFECF81E09927A6B3019611F0A87191
:10092000D9F70895CF93CFB7CF93C395B39BE9F78A
:10093000B39B0BC0B39B09C0B39B07C0B39B05C05F
:10094000B39B03C0B39B01C0D5C00F92DF93C0918E
:10095000D000DD27C952DF4F012EB39B03C0DF91CA
:100960000F90E6CF2F930F931F934F932FEF4F6F5F
:1009700006B303FB20F95F933F9350E03BE065C073
:1009800016B30126502953FDC89556B3012703FB22
:1009900025F92F7306B3B1F05027102713FB26F962
:1009A00006B22230F0F000C016B3012703FB27F98E
:1009B0000126502906B22430E8F54F77206816B397
:1009C0000000F6CF50274F7D206206B2102F0000A6
:1009D00000C006B300265029102713FB26F906B2E3
:1009E000E2CF4F7B06B3206400C0DACF0126502946
:1009F000187106B269F14E7F2160012F16B328C02D
:100A0000002650294D7F06B22260102F29C00126F2
:100A100050294B7F06B22460012F2DC016B301264A
:100A20005029477F2860000006B22EC04F7E06B3D3
:100A3000206130C0422706B3499300265029102771
:100A400006B24FEF13FB20F9297F16B379F2187124
:100A500059F10126502906B2012703FB21F9237F12
:100A600006B371F2002650293150D0F006B210279B
:100A700013FB22F9277E16B351F2012650290127D4
:100A800003FB06B223F92F7C49F2000006B31027BE
:100A900013FB24F90026502906B22F7939F270CFC2
:100AA00010E21ABF002719C03B503195C31BD0403C
:100AB00010E21ABF0881033C09F10B34F9F02091D0
:100AC000CD001981110F1213EDCF4A81441F093651
:100AD00051F10D3211F0013E29F70093D5003F91FD
:100AE0005F914F911F910F912F91DF910F90CAB796
:100AF000C5FD1BCFCF91CFBFCF9118952091D500C9
:100B0000222369F31091D300112379F534307AF15F
:100B10003093D3002093CF001091D0003BE0311BE5
:100B20003093D00024C00091D3000130F4F40AE5E2
:100B30004F7049F43091610034FD1AC00093610098
:100B4000C6EBD0E019C03091C10034FD11C0009354
:100B5000C100C2ECD0E010C0052710E000C021C0E9
:100B6000052710E0C89508BB14C03AE501C032ED76
:100B7000032EC0E0D0E032E017B31861C39A08B387
:100B800017BB58E120E84FEF20FF052708BB27954A
:100B900017951C3F28F700004552B0F720FF0527A6
:100BA000279508BB17951C3FB8F629913A9561F730
:100BB000077E1091D400110F08BBC250D04011F035
:100BC0001093CD0010E21ABF086017B3177E402FB4
:100BD000477E54E05A95F1F708BB17BB48BB7FCF5F
:100BE000FC0180819181A281B38122B708B601FE08
:100BF00002C02F3F59F4BA2FA92F982F8827BC0184
:100C0000CD01620F711D811D911D08950196A11DD9
:100C1000B11DF1CF1F93CF93DF93EC011A811170B7
:100C20006C817D8180E090E021E230E040E050E0A6
:100C3000C6D0DC01CB0127E0B595A79597958795A0
:100C40002A95D1F79F8B8E8B188FDF91CF911F91B3
:100C500008959EE088E10FB6F894A89581BD0FBE77
:100C600091BD82E087BB94E098BB1CBC93E09ABD29
:100C700093BF89BF8FE08EB988E78DB91CDEBB9A20
:100C800080E091E0A895ECE1F0E13197F1F700C048
:100C900000000197B9F7BB98FBDA789431E2C32ED4
:100CA000D12CE12CF12CC1E0D2E0A895D4DC8091CC
:100CB000C10084FF05C060DA68E089E790E0A9DC44
:100CC0001FB7F89482EB90E08BDF1FBF27E0660F21
:100CD000771F881F991F2A95D1F7A70196019CD0ED
:100CE0008091AB009091AC00891319C08091AD0048
:100CF0009091AE00A091AF00B091B00049015A01AF
:100D0000881A990AAA0ABB0A61EA861666E8960654
:100D100061E0A606B10478F01092B1000CC0809397
:100D2000AC002093AD003093AE004093AF005093E1
:100D3000B000C093B1008091B100882319F1809177
:100D4000620090916300A0916400B0916500490138
:100D50005A01881A990AAA0ABB0A61E0861665E355
:100D600096066CE0A606B10408F49FCF20936200BB
:100D700030936300409364005093650088B38D27DF
:100D800088BB93CFC19891CFCF93DF93E1E8F0E098
:100D9000178A168A108E128E118E8EE0ACE9B0E0A2
:100DA000ED0119928A95E9F711A612A613A614A6C9
:100DB00015A616A617A610AADF91CF910895EE27C3
:100DC000FF27AA27BB2708C0A20FB31FE41FF51FE8
:100DD000220F331F441F551F96958795779567956A
:100DE00098F37040A9F7009799F7BD01CF010895D6
:100DF000AA1BBB1B51E107C0AA1FBB1FA617B70741
:100E000010F0A61BB70B881F991F5A95A9F780955C
:100E10009095BC01CD010895A1E21A2EAA1BBB1B1F
:100E2000FD010DC0AA1FBB1FEE1FFF1FA217B307B6
:100E3000E407F50720F0A21BB30BE40BF50B661FCC
:100E4000771F881F991F1A9469F760957095809590
:100E500090959B01AC01BD01CF010895052E97FB34
:100E600016F400940FD057FD05D0D6DF07FC02D052
:100E700046F408C050954095309521953F4F4F4F0F
:100E80005F4F089590958095709561957F4F8F4F36
:100E90009F4F0895EE0FFF1F0590F491E02D0994E8
:100EA000FB01DC0102C001900D9241505040D8F787
:100EB0000895DC01CB01FC01E199FECF06C0FFBB28
:100EC000EEBBE09A31960DB20D9241505040B8F70A
:100ED0000895DC01CB0102C02D9105D04150504056
:100EE000D8F70895262FE199FECF1CBA9FBB8EBB81
:100EF0002DBB0FB6F894E29AE19A0FBE01960895C1
:040F0000F894FFCF93
:020F0400FF5A92
:00000001FF
