:10000000AEC00000D1C00000CFC00000CDC00000D5
:100010008DC40000C9C00000A9C20000C5C0000016
:10002000C3C00000C1C00000BFC000007AC2000011
:10003000BBC00000B9C00000B7C00000B5C00000E0
:10004000B3C00000B1C00000AFC00000ADC00000F0
:1000500005010904A101090185017508150026FFA4
:1000600000350046FF00A1000930093195028102E8
:10007000C0A1000932093395028102C0A1000934F0
:100080000935093695038102C0A1020600FF8502E9
:1000900095100900B102850395120903B102850488
:1000A00095010904B102850595010905B10285068E
:1000B00095010906B102850795010907B102C0C083
:1000C00009022200010100A0190904000001030037
:1000D00000000921010100012270000705810308C9
:1000E000001412011001FF000008C016E80300010F
:1000F00001020301280367007200650075006500B6
:100100006C002E006F00720067003A006800690002
:100110006400720063006A006F00790026035200D9
:100120002F004300200074006F00200050004300A7
:1001300020004A006F0079007300740069006300BA
:100140006B001603670072006500750065006C00A7
:100150002E006F0072006700040309047806112462
:100160001FBECFEFD2E0DEBFCDBF11E0A0E0B1E017
:10017000E2E1FEE002C005900D92A230B107D9F78E
:1001800021E0A2E0B1E001C01D92AD38B207E1F775
:1001900010E0CFEAD0E003C02197FE0102D6CE3AAC
:1001A000D107D1F7EFD433C62BCFDF92EF92FF9276
:1001B0000F931F93CF93DF93D090510181E08093F1
:1001C0001901AAE1EA2EA1E0FA2E01E211E0C0E055
:1001D000D0E04C2FDD2009F456C08091270190918A
:1001E00028012091290130912A0150915101552374
:1001F000B9F0D8011B96EC91F894F0E0EE0FFF1FD8
:10020000EF5DFE4F638D748D7894E3E0660F771F8A
:10021000EA95E1F7F4E076956795FA95E1F702C083
:1002200060E070E0681B790B80912B0190E002C0C8
:10023000959587954A95E2F780FF03C07195619582
:100240007109CB01770FAA0BBB0BBC01CD0147E0B5
:10025000660F771F881F991F4A95D1F7032E000C50
:10026000440B550B60D5DA01C90180589F4FAF4F41
:10027000BF4FB7FD0AC08F3F9105A105B10509F039
:1002800034F4282F05C020E803C020E001C02FEF80
:10029000F70121937F0121960F5F1F4FC730D105D2
:1002A00009F097CFDF91CF911F910F91FF90EF90C1
:1002B000DF90089542E150E060E070E081E291E07B
:1002C0007FD580912201813131F580912501909176
:1002D0002601805D974081349F41E8F48091270199
:1002E00090912801845F9140853C9940A0F48091D1
:1002F000290190912A010A978F3A9B4060F4ECE221
:10030000F1E08191873038F481E0E333F807C9F7F1
:1003100081E291E02CC481E18093220110922301BB
:100320008CEA9DE090932601809325018CED95E069
:10033000909328018093270186E292E090932A010E
:100340008093290110922B01ECE2F1E080E081938F
:100350008F5F8730E1F7DCCF1F93CF93DF93C0919E
:100360000701CC23F1F0DC2F6C1708F4D62FBC0169
:1003700010910801812F90E04D2F50E08F5D9E4F2E
:1003800016D51D0F10930801CD1BC0930701C11195
:1003900003C081E291E0EBD381E0CC2319F080E04F
:1003A00001C081E0DF91CF911F910895CF93DF933A
:1003B000FC0120812076203209F0AFC0818181309C
:1003C00009F054C08281823079F0833009F444C04E
:1003D000813009F0A2C0E9DE89E191E090937201D9
:1003E0008093710188E09AC0809309018091510146
:1003F00080930A01ABE0B1E0C1E2D1E080910A0153
:100400008823C9F0809151018823A9F0EB85F894E5
:10041000F0E0EE0FFF1FEF5DFE4F838D948D78941B
:1004200023E0880F991F2A95E1F734E09695879588
:100430003A95E1F702C080E090E08D939D9321967C
:10044000F1E0A931BF07D1F689E091E09093720104
:100450008093710180E162C08093210181E291E08B
:10046000909372018093710182E158C0893009F044
:1004700045C082818530C1F110F5833031F184307F
:1004800009F04BC081E180932201109223018CEA94
:100490009DE090932601809325018CED95E090934B
:1004A00028018093270186E292E090932A018093AD
:1004B000290110922B01ECE2F1E080E00DC08630C2
:1004C000A9F0873051F59ACD28C01092080182E139
:1004D000809307018FEF22C081938F5F8730E1F710
:1004E00081E291E044D319C0E5DE17C042E150E05B
:1004F00060E070E081E291E073D40FC0823041F49B
:1005000086E091E0909372018093710181E006C0D2
:100510008A3019F483818093060180E0DF91CF91C6
:1005200008951F920F920FB60F9211248F939F93ED
:10053000AF93BF938091520190915301A0915401C8
:10054000B09155010196A11DB11D80935201909368
:100550005301A0935401B0935501BF91AF919F9166
:100560008F910F900FBE0F901F9018951F920F92B2
:100570000FB60F9211242F933F934F935F938F9356
:100580009F93EF93FF93209186003091870078949A
:100590008091390181112EC080913A0190913B01E7
:1005A000A901481B590B30933B0120933A0120913C
:1005B0003701309138014217530740F010924A0139
:1005C00080914B018F5F80934B0114C020914A01B1
:1005D000273080F4F894E0914A01F0E0EE0FFF1F1D
:1005E000EF5DFE4F548F438F789480914A018F5F67
:1005F00080934A01FF91EF919F918F915F914F916D
:100600003F912F910F900FBE0F901F901895CF9391
:10061000C62F2091610124FF07C03091620128E8B4
:1006200023272093620103C02AE5209361012C2F28
:10063000FC01A3E6B1E081918D9321501216DCF309
:100640006C2F83E691E05BD1CC5FC0936101CF91C9
:100650000895CF93DF9360917301635067FDCDC020
:1006600080917001CCE0D0E0C81BD109C958DE4FA1
:1006700080916F018D3209F0AFC0683009F0BBC0C6
:1006800083EC809356018AE58093010110926E01FC
:100690008881807631F0CE0189DE8F3F09F48BC0EE
:1006A00091C09A8110925F018981811106C01092D8
:1006B00060012FE531E082E079C0853019F4909334
:1006C000740171C0863009F058C08B81813041F4CB
:1006D00082EE90E0909372018093710182E149C0B3
:1006E000823041F480EC90E090937201809371012C
:1006F00082E23FC0833041F5911108C088E591E066
:10070000909372018093710184E033C0913041F481
:1007100082E491E0909372018093710186E129C097
:10072000923041F48CE191E09093720180937101D9
:1007300086E21FC09330E1F484EF90E09093720161
:100740008093710188E215C0813241F482ED90E01E
:10075000909372018093710189E00BC0823241F461
:1007600080E590E0909372018093710180E701C071
:1007700080E090E490936E0125C0883069F0893064
:1007800019F4909376010FC08A3049F08B3059F4F8
:100790008BE48093620107C026E731E002C02FE5B9
:1007A00031E081E003C02FE531E080E03093720159
:1007B0002093710107C0988197FD8E8190E89093F6
:1007C0006E0107C09F81911104C09E81981708F4A3
:1007D000892F809300010FC080916E0187FF0BC0AD
:1007E000CE01BADD8F3F21F48EE18093010103C079
:1007F000811110920001109273018091010184FF18
:100800004BC0809100018F3F09F446C0C82F89304A
:1008100008F0C8E08C1B809300019091560188E895
:10082000892780935601CC2359F1809171019091D1
:10083000720120916E0126FF12C0A6E5B1E02C2FB7
:10084000AC0146555140FA01EA0FFB1FE4911196A5
:10085000EC931197215011962111F5CF08C0E7E5CF
:10086000F1E0DC012C2F3D9131932150E1F701960D
:100870002FEF2C0F820F911D9093720180937101C5
:100880006C2F87E591E03BD0CC5FCC3019F08FEF37
:1008900080930001C093010184E193B1987431F415
:1008A0008150D9F71092740110926D01DF91CF91B0
:1008B0000895ECE6F0E0808180648083E8E6F0E073
:1008C000808182608083E1E6F1E08BE481838AE5C8
:1008D00080830895A82FB92F80E090E041E050EA8E
:1008E000609530E009C02D9182279795879510F08B
:1008F00084279527305EC8F36F5FA8F30895EADF79
:100900008D939D930895A6E088279927AA9569F06D
:100910000197E1F31B99FCCF1B9BFECF81E0992748
:10092000A3B1019611F0A874D9F70895CF93CFB76A
:10093000CF93DF93C3951B9BE9F71B9B0BC01B9BBE
:1009400009C01B9B07C01B9B05C01B9B03C01B9BB7
:1009500001C08BC06F93C0917001DD27C958DE4F75
:100960002F9365E51B9B03C02F916F91E6CF0F93EB
:100970001F934F9320E040E15F9303B1087403FBA2
:1009800027F93F9350E03BE039C0187440642F775B
:10099000012F5F5F1EC0406813B118742F7752504B
:1009A0001FC0406403B12F770874D1F15F5F00C0AE
:1009B00023C0406213B12F77187491F15F5F00C0BC
:1009C00025C008741027515012F45D5F00001150CB
:1009D00027952C3F13B1C8F61874012701502795AD
:1009E0002C3FC8F64227499303B1087410274F7370
:1009F000115027952C3FA8F64695469513B11874CB
:100A000079F00127015027952C3F98F66B5A60F337
:100A1000315003B1B0F600C012E01BBB002719C073
:100A20003B503195C31BD04012E01BBB0881033CF7
:100A300009F10B34F9F020916D011981110F121396
:100A4000EDCF4A81441F093651F10D3211F0013EBC
:100A500029F7009375013F915F914F911F910F917D
:100A60002F916F91CBB3C1FD65CFDF91CF91CFBFF8
:100A7000CF91189520917501222369F3109173018C
:100A8000112391F5343092F13093730120936F016B
:100A9000109170013BE0311B3093700127C0009131
:100AA000730101300CF50AE54F7049F430910101F2
:100AB00034FD1DC000930101C6E5D1E01CC030919A
:100AC000610134FD14C000936101C2E6D1E013C09E
:100AD000052710E000C0000005B91AC0052710E086
:100AE000221F1DC010E021C04AE502C032ED432F95
:100AF000C4E1D0E032E014B118642B9A05B114B906
:100B000058E420E865E320FF052705B927951795E8
:100B10001C3FF0F66695B8F7B1F720FF052705B939
:100B2000279517951C3FD0F62795179517FF052792
:100B300000001C3F05B9B0F629913A9519F7077BDB
:100B400010917401110FC651D04005B911F01093E6
:100B50006D0112E01BBB086014B1177B402F477B6F
:100B600054E05A95F1F705B914B945B974CFFC01B1
:100B70008281817024813581220F331F378B268B30
:100B8000808F08959EE088E10FB6F894A895809331
:100B900060000FBE9093600082E084B980E182B96A
:100BA00013BC83E085BD86BD81E080936E0082EC3E
:100BB0008093810080E280936F007BDE239A80E047
:100BC00091E0A895EFE9FFE03197F1F700C0000050
:100BD0000197B9F723986EDB7894C1E0D2E0A8952D
:100BE00038DD8091610184FF05C0DFDA68E089E1CA
:100BF00091E00DDD3FB7F89480915201909153013F
:100C0000A0915401B091550127B5A89B03C02F3F77
:100C100009F046C03FBFBA2FA92F982F8827820F0F
:100C2000911DA11DB11D47E0880F991FAA1FBB1F71
:100C30004A95D1F755E0B695A795979587955A951A
:100C4000D1F720914B0130914C01231318C04091F2
:100C50004D0150914E0160914F01709150018C01F6
:100C60009D01041B150B260B370BB901A801413A56
:100C700056486140710578F0109251010CC02093E4
:100C80004C0180934D0190934E01A0934F01B0937E
:100C90005001C093510120915101211105C026C07E
:100CA0000196A11DB11DB6CF4091020150910301E3
:100CB00060910401709105018C019D01041B150BCD
:100CC000260B370BB901A801413055436C40710523
:100CD00008F485CF8093020190930301A09304014F
:100CE000B093050185B18D2785B979CF299877CF44
:100CF000CF93DF93E1E2F1E0178A168A108E128E0D
:100D0000118E8EE0ACE3B1E0ED0119928A95E9F71E
:100D100011A612A613A614A615A616A617A610AA03
:100D2000DF91CF910895052E97FB16F400940FD014
:100D300057FD05D014D007FC02D046F408C05095EA
:100D40004095309521953F4F4F4F5F4F08959095B7
:100D50008095709561957F4F8F4F9F4F0895A1E2C9
:100D60001A2EAA1BBB1BFD010DC0AA1FBB1FEE1F25
:100D7000FF1FA217B307E407F50720F0A21BB30B70
:100D8000E40BF50B661F771F881F991F1A9469F7EC
:100D900060957095809590959B01AC01BD01CF0148
:100DA0000895EE0FFF1F0590F491E02D0994FB01CB
:100DB000DC0102C001900D9241505040D8F70895D7
:100DC000DC01CB01FC01F999FECF06C0F2BDE1BD0B
:100DD000F89A319600B40D9241505040B8F70895FA
:100DE000DC01CB0102C02D9105D041505040D8F715
:100DF0000895262FF999FECF1FBA92BD81BD20BD5F
:100E00000FB6F894FA9AF99A0FBE01960895F894DD
:020E1000FFCF12
:020E1200FF5A85
:00000001FF
