:1000000094C02FC4B7C0B6C0B5C022C2B3C0B2C07E
:10001000B1C0B0C0AFC0F7C1ADC0ACC0ABC0AAC02A
:10002000A9C005010904A101090185017508158010
:10003000257FA1000930093195028102C0A1000984
:1000400032093395028102C0A1000934093509360D
:1000500095038102C0A1020600FF850295140900E4
:10006000B102850395100900B102850495010900CC
:10007000B102850595010900B102850695010900C7
:10008000B102850795010900B102C0C00902220032
:10009000010100A01909040000010300000009216A
:1000A00001010001226A0007058103080014120102
:1000B0001001FF000008C016E8030001010203015F
:1000C0002803670072006500750065006C002E0053
:1000D0006F00720067003A006800690064007200F7
:1000E00063006A006F007900260352002F0043006E
:1000F000200074006F0020005000430020004A00E0
:100100006F00790073007400690063006B001603D0
:10011000670072006500750065006C002E006F00BE
:100120007200670004030904B60611241FBECFE560
:10013000D1E0DEBFCDBF10E0A0E6B0E0EEE9FFE029
:1001400002C005900D92A236B107D9F720E0A2E6D1
:10015000B0E001C01D92A53FB207E1F710E0C5E98C
:10016000D0E003C02197FE01B6D6C439D107D1F73C
:1001700004D513C745CF40E150E060E070E086E869
:1001800090E0E6D680918600803131F5809188003C
:1001900090918900805D974081349F41E8F480917F
:1001A0008A0090918B00845F9140853C9940A0F437
:1001B00080918C0090918D000A978F3A9B4060F45B
:1001C000EFE8F0E087E08E0F9191973028F48E13DE
:1001D000FBCF86E890E07FC480E180938600109298
:1001E00087008CEA9DE090938900809388008CEDD5
:1001F00095E090938B0080938A0084EF91E0909338
:100200008D0080938C0010928E00EFE8F0E080E08B
:1002100081938F5F8730E1F7DCCF1F93CF93DF931C
:10022000D62FC0916700CC2321F1109168001111E5
:1002300004C0662329F00196D150CD1708F4DC2FB5
:10024000212F30E04D2F50E0BC01C9018A579F4F4C
:1002500076D61D0F10936800CD1BC0936700C111A7
:1002600003C086E890E037D481E0CC2319F080E029
:1002700001C081E0DF91CF911F910895FC01808141
:100280008076803209F0BDC08181813009F060C084
:100290008281823071F0833009F452C0813009F0DC
:1002A000B0C08EE790E09093DA008093D90088E0A8
:1002B00008954091B9008091960090919700A09187
:1002C0009800B091990080936A0090936B00A0937E
:1002D0006C00B0936D00442349F0F8942091A20083
:1002E0003091A3007894922F832F02C090E080E099
:1002F00090936E0080936F00A0E7B0E080E090E004
:10030000442371F0FC01EA57FF4FE185F894F0E0D7
:10031000EE0FFF1FEC55FF4F20813181789402C012
:1003200020E030E02D933D9301968730910541F711
:100330008AE690E09093DA008093D90084E10895F2
:1003400086E890E09093DA008093D90080E10895E8
:10035000893009F047C082818530D1F110F58330B2
:1003600031F1843009F04DC080E180938600109215
:1003700087008CEA9DE090938900809388008CED43
:1003800095E090938B0080938A0084EF91E09093A6
:100390008D0080938C0010928E00EFE8F0E080E0FA
:1003A0000FC08630B9F0873061F528CE2AC080931F
:1003B00069001092680080E1809367008FEF0895D4
:1003C00081938F5F8730E1F786E890E084D319C08E
:1003D000D2DE17C040E150E060E070E086E890E0D7
:1003E000C6D50FC0823041F486E690E09093DA00E3
:1003F0008093D90081E008958A3019F48381809335
:10040000660080E008951F920F920FB60F9211249C
:100410008F939F93AF93BF938091BA009091BB004D
:10042000A091BC00B091BD000196A11DB11D8093AB
:10043000BA009093BB00A093BC00B093BD00BF91E5
:10044000AF919F918F910F900FBE0F901F901895B5
:100450001F920F920FB60F9211242F933F934F9339
:100460005F938F939F93EF93FF9384B595B57894A3
:100470002091870020FD2DC02091A0003091A10087
:10048000AC01421B530B9093A1008093A00080917C
:100490009A0090919B004817590760F05093A30071
:1004A0004093A2001092B3008091B2008F5F8093BE
:1004B000B2000FC08091B300873058F4E82FF0E00D
:1004C000EE0FFF1FEC55FF4F518340838F5F8093EA
:1004D000B300FF91EF919F918F915F914F913F9169
:1004E0002F910F900FBE0F901F901895CF92DF9213
:1004F000EF92FF920F931F93811105C080E291EA62
:10050000A7E0B0E004C080E593ECA0E0B0E000918B
:1005100062001091630020916400309165006A01CF
:100520007B01C01AD10AE20AF30A8C159D05AE05BB
:10053000BF0560F4409362005093630060936400D1
:10054000709365009BB380E289278BBB1F910F914D
:10055000FF90EF90DF90CF900895CF93C62F20911A
:10056000C90024FF07C03091CA0028E82327209340
:10057000CA0003C02AE52093C900DC01EBECF0E0DF
:100580009C2F9E0F8D918193892F8E1B1816D4F36B
:100590006C2F8BEC90E04ED1CC5FC093C900CF9113
:1005A0000895CF93DF936091DB00635067FDCEC069
:1005B0008091D800CCE0D0E0C81BD109C152DF4FF8
:1005C0008091D7008D3209F0B0C0683009F0BCC00E
:1005D00083EC8093BE008AE5809361001092D60080
:1005E0008881807639F0CE0149DE982F8F3F09F45B
:1005F0008BC091C09A811092C7008981811106C079
:100600001092C80027EC30E092E079C0853019F4F0
:100610009093DC0071C0863009F058C08B81813026
:1006200041F48EEA90E09093DA008093D90092E151
:1006300049C0823041F48CE890E09093DA008093D6
:10064000D90092E23FC0833041F5911108C084E2A5
:1006500091E09093DA008093D90094E033C0913018
:1006600041F48EE091E09093DA008093D90096E116
:1006700029C0923041F488EE90E09093DA008093A4
:10068000D90096E21FC09330E1F480EC90E09093A3
:10069000DA008093D90098E215C0813241F48EE9E6
:1006A00090E09093DA008093D90099E00BC08232F9
:1006B00041F482E290E09093DA008093D9009AE6C8
:1006C00001C090E080E48093D60025C0883069F0B6
:1006D000893019F49093DE000FC08A3049F08B30D6
:1006E00059F48BE48093CA0007C02EED30E002C0BD
:1006F00027EC30E091E003C027EC30E090E030934D
:10070000DA002093D90007C0888187FD9E8180E8A8
:100710008093D60007C08F81811104C08E81891714
:1007200008F4982F909360000FC08091D60087FF47
:100730000BC0CE0172DD8F3F21F48EE1809361000A
:1007400003C08111109260001092DB008091610063
:1007500084FF41C0809160008F3F09F43CC0C82FE6
:10076000893008F0C8E08C1B809360009091BE0037
:1007700088E889278093BE00CC2301F18091D900BD
:100780009091DA003091D6002C2F280FAFEBB0E01B
:10079000FC0136FF06C034913D9331962E13FBCFFA
:1007A00004C031913D932E13FCCF01962FEF2C0FF7
:1007B000820F911D9093DA008093D9006C2F8FEBFC
:1007C00090E038D064E06C0F6C3019F08FEF8093BC
:1007D00060006093610084E199B3917831F48150B5
:1007E000D9F71092DC001092D500DF91CF910895D7
:1007F00085B7826085BF8BB780648BBFE9ECF0E082
:100800008BE481838AE580830895A82FB92F80E047
:1008100090E041E050EA609530E009C02D918227D8
:100820009795879510F084279527305EC8F36F5F02
:10083000A8F30895EADF8D939D930895A6E0882795
:100840009927AA9569F00197E1F3C899FCCFC89B55
:10085000FECF81E09927A9B3019611F0A178D9F7CD
:100860000895CF93CFB7CF93C395C89BE9F7C89BA3
:1008700009C0C89B07C0C89B05C0C89B03C0C89BD4
:1008800001C0A3C0DF93C091D800DD27C152DF4F64
:10089000C89B02C0DF91EBCF2F930F931F9309B337
:1008A0002FEF00FB20F94F933F9319B34FEF012730
:1008B00000FB21F93BE031C04E7F012F19B32160CD
:1008C00028C0102F4D7F2260000009B329C04B7F44
:1008D0002460012F000019B32BC019B3477F286093
:1008E0002AC04F7E09B320612CC04F7D19B320620E
:1008F0002FC04F7B09B3206432C0422709B349930C
:100900004FEF0000102710FB20F919B31178C9F13F
:10091000297F91F2012700FB21F909B3237F89F296
:10092000315058F1102710FB22F919B3277E79F2C4
:10093000012700FB23F92F7C81F209B3102710FB5C
:1009400024F92F7971F200C019B3012700FB25F9B2
:100950002F7359F200C009B3102710FB26F922307B
:1009600040F200C019B3012700FB27F9243028F614
:100970004F77206819B30000F9CF10E41ABF0027A1
:1009800019C03B503195C31BD04010E41ABF0881F9
:10099000033CF9F00B34E9F02091D5001981110FD7
:1009A0001213EDCF4A81441F093641F10D3211F087
:1009B000013E29F70093DD003F914F911F910F9168
:1009C0002F91DF91CAB7C6FD4FCFCF91CFBFCF9147
:1009D00018952091DD00222379F31091DB0011237B
:1009E00069F534306AF13093DB002093D700109121
:1009F000D8003BE0311B3093D80022C00091DB00CF
:100A00000130E4F40AE54F7049F43091610034FD9F
:100A100019C000936100CEEBD0E018C03091C9003E
:100A200034FD10C00093C900CAECD0E00FC0279578
:100A3000A8F45150A9F4220F0000F9CF4AE503C0F1
:100A400042ED01C0432FC4E1D0E032E01AB3116897
:100A5000D89A1ABB0BB320E411E85F93012756E044
:100A60000BBB279520F4515021F4220FF9CF012719
:100A700056E000003B5A0BBBD0F2279528F45150AA
:100A800029F4220F0000F9CF012756E027950BBB70
:100A900020F4515021F4220FF9CF012756E029917B
:100AA00033230BBB21F60E771091DC00110FC651DA
:100AB000D0400BBB11F01093D50010E41ABF0160B9
:100AC0001AB31E77402F4E775F9100C000C00BBB5A
:100AD0001ABB4BBB71CF8F929F92AF92BF92CF92B6
:100AE000DF92EF92FF92CF93DF93EC016A817B81DB
:100AF00080E090E02CE030E040E050E098D1490107
:100B00005A0183E0B594A794979487948A95D1F776
:100B10009D8A8C8A6C817D8180E090E02CE030E0C1
:100B200040E050E084D149015A0193E0B594A79484
:100B3000979487949A95D1F79F8A8E8A6E817F8148
:100B400080E090E02CE030E040E050E070D14901DE
:100B50005A0123E0B594A794979487942A95D1F7E6
:100B6000998E888EDF91CF91FF90EF90DF90CF909C
:100B7000BF90AF909F908F9008959EE088E10FB650
:100B8000F894A89581BD0FBE91BD80E28ABB90E428
:100B90009BBB13BC23E020BF23BF21E029BF24E47B
:100BA00028B916B893B996E097B992E89EBD40E689
:100BB00053EE66E170E04093960050939700609387
:100BC0009800709399008CB913DED09A80E091E080
:100BD000A895E7EBFBE03197F1F700C00000019723
:100BE000B9F7C9DAD0987894F8E1CF2ED12CE12C5E
:100BF000F12C11E0A895D5DC3FB7F8948091BA00AC
:100C00009091BB00A091BC00B091BD0022B708B686
:100C100000FE03C02F3F09F0A5C03FBFBA2FA92F88
:100C2000982F8827820F911DA11DB11DBC01CD01F8
:100C3000E7E0660F771F881F991FEA95D1F7A70194
:100C40009601B7D0BA01A9018091B2009091B40089
:100C5000891319C08091B5009091B600A091B7009A
:100C6000B091B8004A015B01881A990AAA0ABB0A26
:100C700021EA821626E8920621E0A206B10478F065
:100C80001092B9000CC08093B4004093B50050930B
:100C9000B6006093B7007093B8001093B9008091CC
:100CA000B90024DC8091C90084FFA4CF0091B90071
:100CB000C0E0D0E0002309F444C080919C009091F2
:100CC0009D0020919E0030919F00FE01EA57FF4F4A
:100CD000E185F894F0E0EE0FFF1FEC55FF4F6081C7
:100CE00071817894681B790B80918E0090E00C2EB6
:100CF00002C0959587950A94E2F780FF03C071952D
:100D000061957109CB01770FAA0BBB0BBC01CD011B
:100D100047E0660F771F881F991F4A95D1F7032E6A
:100D2000000C440B550B67D020388FEF380748076D
:100D300058074CF020383105410551052CF02FE7BC
:100D400003C020E001C020E8FE01E258FF4F2183EC
:100D50002196C730D10509F0ADCF68E08EE790E06D
:100D6000FCDB48CF0196A11DB11D57CFCF93DF9378
:100D7000E6E8F0E0158A148A178A168A118E108E1A
:100D8000138E128E158E148E8EE0A4EAB0E0ED0163
:100D900019928A95E9F714A615A616A617A610AA01
:100DA00011AA12AA13AA81E080937E00DF91CF914D
:100DB0000895A1E21A2EAA1BBB1BFD010DC0AA1F9C
:100DC000BB1FEE1FFF1FA217B307E407F50720F0B4
:100DD000A21BB30BE40BF50B661F771F881F991F2F
:100DE0001A9469F760957095809590959B01AC0178
:100DF000BD01CF010895052E97FB16F400940FD086
:100E000057FD05D0D6DF07FC02D046F408C0509548
:100E10004095309521953F4F4F4F5F4F08959095E6
:100E20008095709561957F4F8F4F9F4F089568947F
:100E30000013E894A0E0B0E0EFE1F7E01DC0EFEFB1
:100E4000E7F959016A015E23550FEE08FE2C870170
:100E50009B01AC019E23990F660B762FCB0141D0ED
:100E6000CDB7DEB7EAE024C02F923F924F925F9257
:100E70006F927F928F929F92AF92BF92CF92DF92AA
:100E8000EF92FF920F931F93CF93DF93CDB7DEB70F
:100E9000CA1BDB0B0FB6F894DEBF0FBECDBF0994A3
:100EA0002A88398848885F846E847D848C849B84FA
:100EB000AA84B984C884DF80EE80FD800C811B8108
:100EC000AA81B981CE0FD11D0FB6F894DEBF0FBE37
:100ED000CDBFED010895EE0FFF1F0590F491E02DB9
:100EE0000994DF93CF939F92A0E49A2E0024D0011F
:100EF000E001F00116950795F794E794D794C7940D
:100F0000B794A79448F41068A20FB31FC41FD51F4D
:100F1000E61FF71F081E191E220F331F441F551FFF
:100F2000661F771F881F991F9A9421F79D01AE01B4
:100F3000BF01C00111249F90CF91DF910895FB0163
:100F4000DC0102C001900D9241505040D8F7089545
:100F5000DC01862FE82FE199FECF1FBA05C0EEBB5A
:100F6000E09AE3950DB20D924150C8F70895DC0167
:100F7000862F02C02D9104D04150E0F70895262F0E
:100F8000E199FECF1CBA1FBA8EBB2DBB0FB6F894E9
:0E0F9000E29AE19A0FBE01960895F894FFCF01
:020F9E00FF5AF8
:00000001FF
