:1000000097C085C4BAC0B9C0B8C0A7C2B6C0B5C091
:10001000B4C0B3C0B2C07CC2B0C0AFC0AEC0ADC08F
:10002000ACC005010904A10109018501750815008D
:1000300026FF00350046FF00A10009300931950276
:100040008102C0A1000932093395028102C0A100DA
:1000500009340935093695038102C0A1020600FF63
:10006000850295100900B102850395120903B102BA
:10007000850495010904B102850595010905B102C0
:10008000850695010906B102850795010907B102A8
:10009000C0C009022200010100A0190904000001EA
:1000A0000300000009210101000122700007058101
:1000B0000308001412011001FF000008C016E80335
:1000C000000101020301280367007200650075004A
:1000D00065006C002E006F00720067003A00680037
:1000E00069006400720063006A006F0079002603F3
:1000F00052002F004300200074006F0020005000C9
:10010000430020004A006F0079007300740069000A
:1001100063006B00160367007200650075006500E0
:100120006C002E006F0072006700040309049C0637
:1001300011241FBECFE5D1E0DEBFCDBF10E0A0E6A9
:10014000B0E0E0EBFEE002C005900D92A236B107F0
:10015000D9F720E0A2E6B0E001C01D92AD3EB207A3
:10016000E1F710E0C8E9D0E003C02197FE016AD6AC
:10017000C739D107D1F724D599C642CFBF92CF92C4
:10018000DF92EF92FF920F931F93CF93DF93B09084
:10019000B10081E0809379007AE7E72E70E0F72ED6
:1001A00001E810E0C0E0D0E0ECE0CE2ED12C4C2FE6
:1001B000BB2009F456C0E0918700F091880020919F
:1001C000890030918A008091B1008823B9F0D8016C
:1001D0001B968C91F894A82FB0E0AA0FBB1FAF57C5
:1001E000BF4F5B968D919C915C97789463E0880FEC
:1001F000991F6A95E1F7B601D3D502C060E070E0BF
:100200006E1B7F0B80918B0090E002C095958795C7
:100210004A95E2F780FF03C0719561957109CB01A2
:10022000770FAA0BBB0BBC01CD0147E0660F771F10
:10023000881F991F4A95D1F7032E000C440B550BCC
:10024000E5D5DA01C90180589F4FAF4FBF4FB7FDC9
:100250000AC08F3F9105A105B10509F034F4282F9C
:1002600005C020E803C020E001C02FEFF701219373
:100270007F0121960F5F1F4FC730D10509F097CF3F
:10028000DF91CF911F910F91FF90EF90DF90CF9072
:10029000BF90089542E150E060E070E081E890E0B6
:1002A000E0D580918200813131F580918500909177
:1002B0008600805D974081349F41E8F480918700FB
:1002C00090918800845F9140853C9940A0F4809192
:1002D000890090918A000A978F3A9B4060F4ECE87D
:1002E000F0E08191873038F480E0E339F807C9F70E
:1002F00081E890E046C481E18093820010928300FF
:100300008CEA9DE090938600809385008CED95E0CB
:10031000909388008093870086E292E090938A0011
:100320008093890010928B00ECE8F0E080E08193EC
:100330008F5F8730E1F7DCCF1F93CF93DF93C091BE
:100340006700CC23F1F0DC2F6C1708F4D62FBC012A
:1003500010916800812F90E04D2F50E08F579F4FF4
:1003600077D51D0F10936800CD1BC0936700C11196
:1003700003C081E890E005D481E0CC2319F080E04F
:1003800001C081E0DF91CF911F9108950F931F93DA
:10039000CF93DF93DC012C912076203209F0B2C09C
:1003A000FC018181813009F056C08281823079F070
:1003B000833009F446C0813009F0A4C0DFDE89E74C
:1003C00090E09093D2008093D10088E09CC080930D
:1003D00069008091B10080936A00CBE6D0E021E80B
:1003E00030E00CE010E080916A008823C1F0809139
:1003F000B1008823A1F0D9011B96EC91F894F0E0AC
:10040000EE0FFF1FEF57FF4F838D948D789443E0DD
:10041000880F991F4A95E1F7B801C2D402C060E085
:1004200070E0699379932F5F3F4FB0E0C937DB07E6
:10043000D1F689E690E09093D2008093D10080E1DC
:1004400062C08093810081E890E09093D200809315
:10045000D10082E158C0893009F045C082818530E1
:10046000C1F110F5833031F1843009F04BC081E1E6
:1004700080938200109283008CEA9DE09093860026
:10048000809385008CED95E09093880080938700A1
:1004900086E292E090938A008093890010928B000C
:1004A000ECE8F0E080E00DC08630A9F0873051F52F
:1004B000A5CD28C01092680082E1809367008FEF7D
:1004C00022C081938F5F8730E1F781E890E059D3B4
:1004D00019C0E0DE17C042E150E060E070E081E862
:1004E00090E0CED40FC0823041F486E690E0909345
:1004F000D2008093D10081E006C08A3019F4838154
:100500008093660080E0DF91CF911F910F91089555
:100510001F920F920FB60F9211248F939F93AF9358
:10052000BF938091B2009091B300A091B400B091BC
:10053000B5000196A11DB11D8093B2009093B30048
:10054000A093B400B093B500BF91AF919F918F91EC
:100550000F900FBE0F901F9018951F920F920FB61D
:100560000F9211242F933F934F935F938F939F93F9
:10057000EF93FF9324B535B578948091990081115C
:100580002EC080919A0090919B00A901481B590BA5
:1005900030939B0020939A0020919700309198000F
:1005A0004217530740F01092AA008091AB008F5F72
:1005B0008093AB0014C02091AA00273080F4F894F7
:1005C000E091AA00F0E0EE0FFF1FEF57FF4F548FAE
:1005D000438F78948091AA008F5F8093AA00FF9147
:1005E000EF919F918F915F914F913F912F910F903C
:1005F0000FBE0F901F901895CF93C62F2091C1006A
:1006000024FF07C03091C20028E823272093C200AE
:1006100003C02AE52093C1002C2FFC01A3ECB0E01D
:1006200081918D9321501216DCF36C2F83EC90E0B6
:1006300057D1CC5FC093C100CF910895CF93DF9382
:100640006091D300635067FDCDC08091D000CCE0B5
:10065000D0E0C81BD109C952DF4F8091CF008D3245
:1006600009F0AFC0683009F0BBC083EC8093B600DE
:100670008AE5809361001092CE008881807631F007
:10068000CE0184DE8F3F09F48BC091C09A81109215
:10069000BF008981811106C01092C0002FEB30E0AD
:1006A00082E079C0853019F49093D40071C086300F
:1006B00009F058C08B81813041F484EB90E0909335
:1006C000D2008093D10082E149C0823041F482E9B6
:1006D00090E09093D2008093D10082E23FC08330BB
:1006E00041F5911108C08AE291E09093D200809385
:1006F000D10084E033C0913041F484E191E09093E3
:10070000D2008093D10086E129C0923041F48EEE70
:1007100090E09093D2008093D10086E21FC0933086
:10072000E1F486EC90E09093D2008093D10088E2CF
:1007300015C0813241F484EA90E09093D200809316
:10074000D10089E00BC0823241F482E290E09093C4
:10075000D2008093D10080E701C080E090E49093C4
:10076000CE0025C0883069F0893019F49093D60006
:100770000FC08A3049F08B3059F48BE48093C2006B
:1007800007C026ED30E002C02FEB30E081E003C06F
:100790002FEB30E080E03093D2002093D10007C0EF
:1007A000988197FD8E8190E89093CE0007C09F813D
:1007B000911104C09E81981708F4892F80936000DE
:1007C0000FC08091CE0087FF0BC0CE01B5DD8F3FFB
:1007D00021F48EE18093610003C0811110926000CA
:1007E0001092D3008091610084FF4BC08091600023
:1007F0008F3F09F446C0C82F893008F0C8E08C1B31
:10080000809360009091B60088E889278093B600B5
:10081000CC2359F18091D1009091D2002091CE004B
:1008200026FF12C0A6EBB0E02C2FAC01465B504077
:10083000FA01EA0FFB1FE4911196EC9311972150F6
:1008400011962111F5CF08C0E7EBF0E0DC012C2F69
:100850003D9131932150E1F701962FEF2C0F820F3C
:10086000911D9093D2008093D1006C2F87EB90E084
:1008700037D0CC5FCC3019F08FEF80936000C093FD
:10088000610084E199B3917831F48150D9F71092E5
:10089000D4001092CD00DF91CF91089585B782608A
:1008A00085BF8BB780648BBFE1ECF0E08BE4818384
:1008B0008AE580830895A82FB92F80E090E041E079
:1008C00050EA609530E009C02D9182279795879571
:1008D00010F084279527305EC8F36F5FA8F3089562
:1008E000EADF8D939D930895A6E088279927AA951E
:1008F00069F00197E1F3C899FCCFC89BFECF81E076
:100900009927A9B3019611F0A178D9F70895CF934B
:10091000CFB7CF93C395C89BE9F7C89B09C0C89BC5
:1009200007C0C89B05C0C89B03C0C89B01C0A3C02B
:10093000DF93C091D000DD27C952DF4FC89B02C0B2
:10094000DF91EBCF2F930F931F9309B32FEF00FB92
:1009500020F94F933F9319B34FEF012700FB21F983
:100960003BE031C04E7F012F19B3216028C0102F0A
:100970004D7F2260000009B329C04B7F2460012F06
:10098000000019B32BC019B3477F28602AC04F7EDF
:1009900009B320612CC04F7D19B320622FC04F7B5B
:1009A00009B3206432C0422709B349934FEF0000D6
:1009B000102710FB20F919B31178C9F1297F91F2A2
:1009C000012700FB21F909B3237F89F2315058F147
:1009D000102710FB22F919B3277E79F2012700FBBB
:1009E00023F92F7C81F209B3102710FB24F92F790A
:1009F00071F200C019B3012700FB25F92F7359F2DA
:100A000000C009B3102710FB26F9223040F200C0C5
:100A100019B3012700FB27F9243028F64F77206807
:100A200019B30000F9CF10E41ABF002719C03B50DA
:100A30003195C31BD04010E41ABF0881033CF9F084
:100A40000B34E9F02091CD001981110F1213EDCF75
:100A50004A81441F093641F10D3211F0013E29F758
:100A60000093D5003F914F911F910F912F91DF91EE
:100A7000CAB7C6FD4FCFCF91CFBFCF911895209168
:100A8000D500222379F31091D300112369F5343076
:100A90006AF13093D3002093CF001091D0003BE057
:100AA000311B3093D00022C00091D3000130E4F418
:100AB0000AE54F7049F43091610034FD19C000938C
:100AC0006100C6EBD0E018C03091C10034FD10C009
:100AD0000093C100C2ECD0E00FC02795A8F451509C
:100AE000A9F4220F0000F9CF4AE503C042ED01C08E
:100AF000432FC4E1D0E032E01AB31168D89A1ABB90
:100B00000BB320E411E85F93012756E00BBB279558
:100B100020F4515021F4220FF9CF012756E00000B4
:100B20003B5A0BBBD0F2279528F4515029F4220FE1
:100B30000000F9CF012756E027950BBB20F4515058
:100B400021F4220FF9CF012756E0299133230BBB63
:100B500021F60E771091D400110FC651D0400BBB77
:100B600011F01093CD0010E41ABF01601AB31E7784
:100B7000402F4E775F9100C000C00BBB1ABB4BBB30
:100B800071CF1F93CF93DF93EC011A8111706C81A9
:100B90007D8180E090E02CE030E040E050E0E7D064
:100BA000DC01CB0123E0B595A795979587952A950C
:100BB000D1F79F8B8E8B188FDF91CF911F91089566
:100BC0009EE088E10FB6F894A89581BD0FBE91BD57
:100BD00080E28ABB90E49BBB13BC23E020BF23BF11
:100BE00021E029BF24E428B916B893B996E097B953
:100BF00092E89EBD8CB952DED09A80E091E0A89533
:100C0000E7EBFBE03197F1F700C000000197B9F77F
:100C1000D09840DB789458E1C52ED12CE12CF12CF2
:100C2000C1E0D0E2A8950ADD8091C10084FF05C033
:100C3000A5DA68E089E790E0DFDC3FB7F8948091BF
:100C4000B2009091B300A091B400B091B50022B76A
:100C500008B600FE03C02F3F09F045C03FBFBA2FC2
:100C6000A92F982F8827820F911DA11DB11DBC01AE
:100C7000CD0147E0660F771F881F991F4A95D1F76E
:100C8000A7019601A1D08091AB009091AC0089138F
:100C900019C08091AD009091AE00A091AF00B091CD
:100CA000B00049015A01881A990AAA0ABB0A61EAE6
:100CB000861666E8960661E0A606B10478F0109202
:100CC000B1000CC08093AC002093AD003093AE0017
:100CD0004093AF005093B000C093B1008091B10039
:100CE000811105C027C00196A11DB11DB7CF80910C
:100CF000620090916300A0916400B0916500490189
:100D00005A01881A990AAA0ABB0A61E0861665E3A5
:100D100096066CE0A606B10408F484CF2093620026
:100D20003093630040936400509365008BB38D272C
:100D30008BBB78CFDD9876CFCF93DF93E1E8F0E0FF
:100D4000178A168A108E128E118E8EE0ACE9B0E0F2
:100D5000ED0119928A95E9F711A612A613A614A619
:100D600015A616A617A610AADF91CF910895EE2713
:100D7000FF27AA27BB2708C0A20FB31FE41FF51F38
:100D8000220F331F441F551F9695879577956795BA
:100D900098F37040A9F7009799F7BD01CF01089526
:100DA000AA1BBB1B51E107C0AA1FBB1FA617B70791
:100DB00010F0A61BB70B881F991F5A95A9F78095AD
:100DC0009095BC01CD010895A1E21A2EAA1BBB1B70
:100DD000FD010DC0AA1FBB1FEE1FFF1FA217B30707
:100DE000E407F50720F0A21BB30BE40BF50B661F1D
:100DF000771F881F991F1A9469F7609570958095E1
:100E000090959B01AC01BD01CF010895052E97FB84
:100E100016F400940FD057FD05D0D6DF07FC02D0A2
:100E200046F408C050954095309521953F4F4F4F5F
:100E30005F4F089590958095709561957F4F8F4F86
:100E40009F4F0895EE0FFF1F0590F491E02D099438
:100E5000FB01DC0102C001900D9241505040D8F7D7
:100E60000895DC01862FE82FE199FECF1FBA05C057
:100E7000EEBBE09AE3950DB20D924150C8F708958C
:100E8000DC01862F02C02D9104D04150E0F7089577
:100E9000262FE199FECF1CBA1FBA8EBB2DBB0FB611
:100EA000F894E29AE19A0FBE01960895F894FFCF64
:020EB000FF5AE7
:00000001FF
