:100000000C94AC000C94D4000C94D4000C94D40048
:100010000C945D040C94D4000C944A020C94D4000B
:100020000C94D4000C94D4000C94D4000C942502AD
:100030000C94D4000C94D4000C94D4000C94D400F0
:100040000C94D4000C94D4000C94D4000C94D400E0
:1000500005010904A1010901850175081580257FA5
:10006000A1000930093195028102C0A100093209BD
:100070003395028102C0A100093409350936950380
:100080008102C0A1020600FF850295140900B10299
:10009000850395100900B102850495010900B1029C
:1000A000850595010900B102850695010900B10297
:1000B000850795010900B102C0C0090222000101B3
:1000C00000A019090400000103000000092101013A
:1000D0000001226A000705810308001412011001C3
:1000E000FF000008C016E803000101020301280315
:1000F000670072006500750065006C002E006F00DF
:10010000720067003A0068006900640072006300D2
:100110006A006F007900260352002F004300200080
:1001200074006F0020005000430020004A006F0060
:10013000790073007400690063006B0016036700A8
:1001400072006500750065006C002E006F00720083
:100150006700040309048C0611241FBECFEFD2E010
:10016000DEBFCDBF11E0A0E0B1E0E2E5FEE002C0FD
:1001700005900D92A230B107D9F721E0A2E0B1E0DD
:1001800001C01D92A539B207E1F710E0CCEAD0E03A
:1001900004C02197FE010E94F006CB3AD107C9F7AF
:1001A0000E9492050C9427070C94000040E150E057
:1001B00060E070E086E291E00E94FF0680912601F7
:1001C000803139F58091280190912901805D974017
:1001D00081349F41F0F480912A0190912B01845F3A
:1001E0009140853C9940A8F480912C0190912D017B
:1001F0000A978F3A9B4068F4EFE2F1E087E08E0FB8
:100200009191973030F48E13FBCF86E291E00C94FD
:100210007E0580E180932601109227018CEA9DE003
:1002200090932901809328018CED95E090932B0108
:1002300080932A0184EF91E090932D0180932C010B
:1002400010922E01EFE2F1E080E081938F5F873022
:10025000E1F7DBCF1F93CF93DF93D62FC091070138
:10026000CC2331F110910801111104C0662329F04B
:100270000196D150CD1708F4DC2F212F30E04D2FFF
:1002800050E0BC01C9018A5D9E4F0E94F6061D0F19
:1002900010930801CD1BC0930701C11104C086E271
:1002A00091E00E947E0581E0CC2319F080E001C03E
:1002B00081E0DF91CF911F910895FC0180818076CC
:1002C000803209F0C0C08181813009F060C0828134
:1002D000823071F0833009F452C0813009F0B3C02C
:1002E0008EE191E090937A018093790188E00895FE
:1002F000409159018091360190913701A0913801C8
:10030000B091390180930A0190930B01A0930C01E5
:10031000B0930D01442349F0F894209142013091AB
:1003200043017894922F832F02C090E080E0909355
:100330000E0180930F01A0E1B1E080E090E0442342
:1003400071F0FC01EA5DFE4FE185F894F0E0EE0FFC
:10035000FF1FEC5BFE4F20813181789402C020E0CA
:1003600030E02D933D9301968730910541F78AE067
:1003700091E090937A018093790184E1089586E277
:1003800091E090937A018093790180E1089589301A
:1003900009F04AC082818530D9F110F5833031F1FE
:1003A000843009F050C080E180932601109227012B
:1003B0008CEA9DE090932901809328018CED95E0D3
:1003C00090932B0180932A0184EF91E090932D016B
:1003D00080932C0110922E01EFE2F1E080E00FC03B
:1003E0008630C9F0873079F509CE2DC08093090198
:1003F0001092080180E1809307018FEF08958193A7
:100400008F5F8730E1F786E291E00E947E051BC096
:100410000E94D60018C040E150E060E070E086E243
:1004200091E00E940F070FC0823041F486E091E016
:1004300090937A018093790181E008958A3019F4CC
:1004400083818093060180E008951F920F920FB67A
:100450000F9211248F939F93AF93BF9380915A0172
:1004600090915B01A0915C01B0915D010196A11D8D
:10047000B11D80935A0190935B01A0935C01B093EE
:100480005D01BF91AF919F918F910F900FBE0F9023
:100490001F9018951F920F920FB60F9211242F9351
:1004A0003F934F935F938F939F93EF93FF9380912D
:1004B00086009091870078942091270120FD2DC01F
:1004C0002091400130914101AC01421B530B9093AC
:1004D00041018093400180913A0190913B0148177E
:1004E000590760F050934301409342011092530129
:1004F000809152018F5F809352010FC08091530110
:10050000873058F4E82FF0E0EE0FFF1FEC5BFE4F52
:10051000518340838F5F80935301FF91EF919F91AF
:100520008F915F914F913F912F910F900FBE0F9040
:100530001F901895CF92DF92EF92FF920F931F9327
:10054000811105C080E291EAA7E0B0E004C080E537
:1005500093ECA0E0B0E00091020110910301209122
:100560000401309105016A017B01C01AD10AE20A37
:10057000F30A8C159D05AE05BF0560F4409302019A
:1005800050930301609304017093050195B182E0DB
:10059000892785B91F910F91FF90EF90DF90CF9041
:1005A0000895CF93C62F2091690124FF07C0309191
:1005B0006A0128E8232720936A0103C02AE52093D3
:1005C0006901DC01EBE6F1E09C2F9E0F8D91819398
:1005D000892F8E1B1816D4F36C2F8BE691E00E94A6
:1005E0004604CC5FC0936901CF910895CF93DF9308
:1005F00060917B01635067FDD0C080917801CCE0B1
:10060000D0E0C81BD109C158DE4F809177018D32EF
:1006100009F0B1C0683009F0BEC083EC80935E0180
:100620008AE580930101109276018881807641F0FD
:10063000CE010E945D01982F8F3F09F48BC091C0BD
:100640009A81109267018981811106C01092680118
:1006500027E631E092E079C0853019F490937C016F
:1006600071C0863009F058C08B81813041F48CED27
:1006700090E090937A018093790192E149C08230B1
:1006800041F48AEB90E090937A018093790192E2B1
:100690003FC0833041F5911108C082E591E090930D
:1006A0007A018093790194E033C0913041F48CE376
:1006B00091E090937A018093790196E129C092307C
:1006C00041F486E191E090937A018093790196E27A
:1006D0001FC09330E1F48EEE90E090937A01809306
:1006E000790198E215C0813241F48CEC90E090934E
:1006F0007A018093790199E00BC0823241F480E560
:1007000090E090937A01809379019AE601C090E09D
:1007100080E48093760125C0883069F0893019F42F
:1007200090937E010FC08A3049F08B3059F48BE4EE
:1007300080936A0107C02EE731E002C027E631E06E
:1007400091E003C027E631E090E030937A012093F6
:10075000790107C0888187FD9E8180E880937601BA
:1007600007C08F81811104C08E81891708F4982FEA
:100770009093000110C08091760187FF0CC0CE01DC
:100780000E942A018F3F21F48EE18093010103C072
:1007900081111092000110927B018091010184FF70
:1007A00042C0809100018F3F09F43DC0C82F8930BD
:1007B00008F0C8E08C1B8093000190915E0188E8EE
:1007C000892780935E01CC2301F18091790190917A
:1007D0007A01309176012C2F280FAFE5B1E0FC01B2
:1007E00036FF06C034913D9331962E13FBCF04C0E3
:1007F00031913D932E13FCCF01962FEF2C0F820FDA
:10080000911D90937A01809379016C2F8FE591E08F
:100810000E94460464E06C0F6C3019F08FEF8093F7
:1008200000016093010184E193B1987431F4815027
:10083000D9F710927C0110927501DF91CF91089544
:10084000ECE6F0E0808180648083E8E6F0E080817F
:1008500082608083E9E6F1E08BE481838AE580832E
:100860000895A82FB92F80E090E041E050EA60950C
:1008700030E009C02D9182279795879510F0842745
:100880009527305EC8F36F5FA8F30895EADF8D9374
:100890009D930895A6E088279927AA9569F0019766
:1008A000E1F31B99FCCF1B9BFECF81E09927A3B1FD
:1008B000019611F0A874D9F70895CF93CFB7CF93CD
:1008C000DF93C3951B9BE9F71B9B0BC01B9B09C0C8
:1008D0001B9B07C01B9B05C01B9B03C01B9B01C030
:1008E0008BC06F93C0917801DD27C158DE4F2F93E5
:1008F00065E51B9B03C02F916F91E6CF0F931F936C
:100900004F9320E040E15F9303B1087403FB27F9A4
:100910003F9350E03BE039C0187440642F77012FBB
:100920005F5F1EC0406813B118742F7752501FC00C
:10093000406403B12F770874D1F15F5F00C023C01A
:10094000406213B12F77187491F15F5F00C025C02A
:1009500008741027515012F45D5F00001150279564
:100960002C3F13B1C8F618740127015027952C3F6E
:10097000C8F64227499303B1087410274F731150EA
:1009800027952C3FA8F64695469513B1187479F033
:100990000127015027952C3F98F66B5A60F3315090
:1009A00003B1B0F600C012E01BBB002719C03B50DA
:1009B0003195C31BD04012E01BBB0881033C09F1F9
:1009C0000B34F9F0209175011981110F1213EDCF3D
:1009D0004A81441F093651F10D3211F0013E29F7C9
:1009E00000937D013F915F914F911F910F912F9146
:1009F0006F91CBB3C1FD65CFDF91CF91CFBFCF91C9
:100A0000189520917D01222369F310917B01112318
:100A100091F5343092F130937B012093770110915E
:100A200078013BE0311B3093780127C000917B01B6
:100A300001300CF50AE54F7049F43091010134FDA5
:100A40001DC000930101CEE5D1E01CC030916901C9
:100A500034FD14C000936901CAE6D1E013C0052734
:100A600010E000C0000005B91AC0052710E0221FE1
:100A70001DC010E021C04AE502C032ED432FC4E1A1
:100A8000D0E032E014B118642B9A05B114B958E4DF
:100A900020E865E320FF052705B9279517951C3F3A
:100AA000F0F66695B8F7B1F720FF052705B9279549
:100AB00017951C3FD0F62795179517FF05270000BF
:100AC0001C3F05B9B0F629913A9519F7077B1091AB
:100AD0007C01110FC651D04005B911F0109375017A
:100AE00012E01BBB086014B1177B402F477B54E01A
:100AF0005A95F1F705B914B945B974CFFC01828153
:100B00009381880F991F958B848B84819581880FA1
:100B1000991F978B868B86819781880F991F918F5C
:100B2000808F08959EE088E10FB6F894A895809391
:100B300060000FBE9093600082E084B980E182B9CA
:100B400013BC83E085BD86BD81E080936E0082EC9E
:100B50008093810080E894E8AEE1B0E080933601B4
:100B600090933701A0933801B093390180E28093CC
:100B70006F000E942004239A80E091E0A895EFE99D
:100B8000FFE03197F1F700C000000197B9F70E942C
:100B9000D60023987894C1E0A8950E94F6029FB7EA
:100BA000F89440915A0150915B0160915C01709101
:100BB0005D0187B5A89B03C08F3F09F0A8C09FBF08
:100BC000762F652F542F4427480F511D611D711D2D
:100BD000F7E0440F551F661F771FFA95D1F7A5E080
:100BE0007695679557954795AA95D1F780915201CB
:100BF00090915401891318C080915501909156012C
:100C0000A0915701B09158018A019B01081B190B53
:100C10002A0B3B0BD901C801813A9648A140B10586
:100C200078F0109259010CC0809354014093550103
:100C3000509356016093570170935801C093590126
:100C4000809159010E949A028091690184FFA4CF8A
:100C5000D091590100E010E0DD2309F445C08091F6
:100C60003C0190913D0120913E0130913F01F801FE
:100C7000EA5DFE4FE185F894F0E0EE0FFF1FEC5BBC
:100C8000FE4F608171817894681B790B80912E01F1
:100C900090E0002E02C0959587950A94E2F780FFB8
:100CA00003C0719561957109CB01770FAA0BBB0B3E
:100CB000BC01CD0147E0660F771F881F991F4A9539
:100CC000D1F7032E000C440B550B0E94AF062038C1
:100CD0008FEF3807480758074CF020383105410599
:100CE00051052CF02FE703C020E001C020E8F801F7
:100CF000E25EFE4F21830F5F1F4F0730110509F0A1
:100D0000ABCF68E08EE191E00E94D10245CF4F5F0A
:100D10005F4F6F4F7F4F53CFCF93DF93E6E2F1E00A
:100D2000158A148A178A168A118E108E138E128EC7
:100D3000158E148E8EE0A4E4B1E0ED0119928A952F
:100D4000E9F714A615A616A617A610AA11AA12AAA4
:100D500013AA81E080931E01DF91CF910895052EA3
:100D600097FB1EF400940E94C60657FD07D00E9410
:100D7000CE0607FC03D04EF40C94C6065095409561
:100D8000309521953F4F4F4F5F4F08959095809537
:100D9000709561957F4F8F4F9F4F0895A1E21A2E56
:100DA000AA1BBB1BFD010DC0AA1FBB1FEE1FFF1F0F
:100DB000A217B307E407F50720F0A21BB30BE40B5F
:100DC000F50B661F771F881F991F1A9469F76095A6
:100DD0007095809590959B01AC01BD01CF01089560
:100DE000EE0FFF1F0590F491E02D0994FB01DC014B
:100DF00002C001900D9241505040D8F70895DC0197
:100E0000CB01FC01F999FECF06C0F2BDE1BDF89A15
:100E1000319600B40D9241505040B8F70895DC016E
:100E2000CB0103C02D910E941A0741505040D0F7CA
:100E30000895262FF999FECF1FBA92BD81BD20BD1E
:100E40000FB6F894FA9AF99A0FBE01960895F8949D
:020E5000FFCFD2
:020E5200FF5A45
:00000001FF
