:1000000094C0A3C4B7C0B6C0B5C08FC2B3C0B2C09D
:10001000B1C0B0C0AFC064C2ADC0ACC0ABC0AAC0BC
:10002000A9C005010904A101090185017508158010
:10003000257FA1000930093195028102C0A1000984
:1000400032093395028102C0A1000934093509360D
:1000500095038102C0A1020600FF850295180900E0
:10006000B102850395120903B102850495010904C3
:10007000B102850595010905B102850695010906BC
:10008000B102850795010907B102C0C0090222002B
:10009000010100A01909040000010300000009216A
:1000A00001010001226A0007058103080014120102
:1000B0001001FF000008C016E8030001010203015F
:1000C0002803670072006500750065006C002E0053
:1000D0006F00720067003A006800690064007200F7
:1000E00063006A006F007900260352002F0043006E
:1000F000200074006F0020005000430020004A00E0
:100100006F00790073007400690063006B001603D0
:10011000670072006500750065006C002E006F00BE
:100120007200670004030904C30611241FBECFE553
:10013000D1E0DEBFCDBF10E0A0E6B0E0E0EEFEE033
:1001400002C005900D92A236B107D9F720E0A2E6D1
:10015000B0E001C01D92AA3FB207E1F710E0C5E987
:10016000D0E003C02197FE0185D6C439D107D1F76D
:1001700068D5B4C645CFDF92EF92FF920F931F93DD
:10018000CF93DF93D090BE0081E08093810062E83E
:10019000E62E60E0F62E09E810E0C0E0D0E0DD20B9
:1001A00009F443C08091A1009091A2002091A30086
:1001B0003091A400D8011B96EC91F894F0E0EE0F7A
:1001C000FF1FE755FF4F608171817894681B790BA1
:1001D0008091930090E00C2E02C0959587950A942B
:1001E000E2F780FF03C0719561957109CB01770F2C
:1001F000AA0BBB0BBC01CD0147E0660F771F881F20
:10020000991F4A95D1F7032E000C440B550B16D6B7
:100210002038EFEF3E074E075E074CF020383105DF
:10022000410551052CF02FE703C020E001C020E874
:10023000D7012D937D0121960F5F1F4FC730D10548
:1002400009F0ADCFDF91CF911F910F91FF90EF900B
:10025000DF90089542E150E060E070E089E890E0CE
:1002600018D680918A00803131F580918D0090916F
:100270008E00805D974081349F41E8F480918F002B
:1002800090919000845F9140853C9940A0F48091CA
:100290009100909192000A978F3A9B4060F4E4E9B4
:1002A000F0E08191873038F480E0EB39F807C9F746
:1002B00089E890E084C480E180938A0010928B00EA
:1002C0008CEA9DE090938E0080938D008CED95E0FC
:1002D0009093900080938F0084EF91E09093920030
:1002E0008093910010929300E4E9F0E080E0819324
:1002F0008F5F8730E1F7DCCF1F93CF93DF93C091FF
:100300006700CC23F1F0DC2F6C1708F4D62FBC016A
:1003100010916800812F90E04D2F50E087579F4F3C
:10032000AFD51D0F10936800CD1BC0936700C1119E
:1003300003C089E890E043D481E0CC2319F080E049
:1003400001C081E0DF91CF911F910895CF93DF939A
:10035000FC0120812076203209F0BEC081818130ED
:1003600009F063C08281823079F0833009F453C090
:10037000813009F0B1C0FFDE81E890E09093DF00AA
:100380008093DE0088E0A9C02091BE0080936900C0
:1003900080919B0090919C00A0919D00B0919E0047
:1003A00080936D0090936E00A0936F00B0937000E7
:1003B000222349F0F8944091A7005091A800789426
:1003C000942F852F02C090E080E09093710080937D
:1003D0007200A3E7B0E0C9E8D0E0222359F0EB8532
:1003E000F894F0E0EE0FFF1FE755FF4F80819181F9
:1003F000789402C080E090E08D939D932196F0E088
:10040000A138BF0751F789E690E09093DF00809311
:10041000DE0088E162C08093890089E890E09093D3
:10042000DF008093DE0082E158C0893009F045C0CA
:1004300082818530C1F110F5833031F1843009F0CB
:100440004BC080E180938A0010928B008CEA9DE083
:1004500090938E0080938D008CED95E090939000AA
:1004600080938F0084EF91E09093920080939100AD
:1004700010929300E4E9F0E080E00DC08630A9F02E
:10048000873051F5BBCD28C01092680082E180937F
:1004900067008FEF22C081938F5F8730E1F789E893
:1004A00090E08DD319C0D6DE17C042E150E060E085
:1004B00070E089E890E0FCD40FC0823041F486E619
:1004C00090E09093DF008093DE0081E006C08A30E8
:1004D00019F483818093660080E0DF91CF910895C5
:1004E0001F920F920FB60F9211248F939F93AF9389
:1004F000BF938091BF009091C000A091C100B091C6
:10050000C2000196A11DB11D8093BF009093C00051
:10051000A093C100B093C200BF91AF919F918F9102
:100520000F900FBE0F901F9018951F920F920FB64D
:100530000F9211242F933F934F935F938F939F9329
:10054000EF93FF9384B595B5789420918B0020FDAF
:100550002DC02091A5003091A600AC01421B530B89
:100560009093A6008093A50080919F009091A00099
:100570004817590760F05093A8004093A7001092C5
:10058000B8008091B7008F5F8093B7000FC0809153
:10059000B800873058F4E82FF0E0EE0FFF1FE75562
:1005A000FF4F518340838F5F8093B800FF91EF919D
:1005B0009F918F915F914F913F912F910F900FBE1F
:1005C0000F901F901895CF92DF92EF92FF920F93AA
:1005D0001F93811105C080E291EAA7E0B0E004C05A
:1005E00080E593ECA0E0B0E0009162001091630020
:1005F00020916400309165006A017B01C01AD10A24
:10060000E20AF30A8C159D05AE05BF0560F4409320
:1006100062005093630060936400709365009BB325
:1006200080E289278BBB1F910F91FF90EF90DF90A5
:10063000CF900895CF93C62F2091CE0024FF07C0FE
:100640003091CF0028E823272093CF0003C02AE56C
:100650002093CE002C2FFC01A0EDB0E081918D9372
:1006600021501216DCF36C2F80ED90E057D1CC5F57
:10067000C093CE00CF910895CF93DF936091E000B7
:10068000635067FDCDC08091DD00CCE0D0E0C81B99
:10069000D109CC51DF4F8091DC008D3209F0AFC021
:1006A000683009F0BBC083EC8093C3008AE5809377
:1006B00061001092DB008881807631F0CE0146DE49
:1006C0008F3F09F48BC091C09A811092CC00898130
:1006D000811106C01092CD002CEC30E082E079C090
:1006E000853019F49093E10071C0863009F058C04C
:1006F0008B81813041F48EEA90E09093DF0080930B
:10070000DE0082E149C0823041F48CE890E09093B1
:10071000DF008093DE0082E23FC0833041F591111B
:1007200008C084E291E09093DF008093DE0084E0D3
:1007300033C0913041F48EE091E09093DF008093DC
:10074000DE0086E129C0923041F488EE90E090937B
:10075000DF008093DE0086E21FC09330E1F480EC7E
:1007600090E09093DF008093DE0088E215C0813234
:1007700041F48EE990E09093DF008093DE0089E001
:100780000BC0823241F482E290E09093DF008093CC
:10079000DE008AE601C080E090E49093DB0025C093
:1007A000883069F0893019F49093E3000FC08A30E3
:1007B00049F08B3059F48BE48093CF0007C023EECF
:1007C00030E002C02CEC30E081E003C02CEC30E0E3
:1007D00080E03093DF002093DE0007C0988197FD12
:1007E0008E8190E89093DB0007C09F81911104C037
:1007F0009E81981708F4892F809360000FC0809124
:10080000DB0087FF0BC0CE0177DD8F3F21F48EE147
:100810008093610003C08111109260001092E0008B
:100820008091610084FF4BC0809160008F3F09F48C
:1008300046C0C82F893008F0C8E08C1B8093600048
:100840009091C30088E889278093C300CC2359F195
:100850008091DE009091DF002091DB0026FF12C026
:10086000A3ECB0E02C2FAC01435C5040FA01EA0F3E
:10087000FB1FE4911196EC931197215011962111D1
:10088000F5CF08C0E4ECF0E0DC012C2F3D91319372
:100890002150E1F701962FEF2C0F820F911D9093BD
:1008A000DF008093DE006C2F84EC90E037D0CC5FCB
:1008B000CC3019F08FEF80936000C093610084E129
:1008C00099B3917831F48150D9F71092E1001092E8
:1008D000DA00DF91CF91089585B7826085BF8BB72D
:1008E00080648BBFEEECF0E08BE481838AE580834B
:1008F0000895A82FB92F80E090E041E050EA60957C
:1009000030E009C02D9182279795879510F08427B4
:100910009527305EC8F36F5FA8F30895EADF8D93E3
:100920009D930895A6E088279927AA9569F00197D5
:10093000E1F3C899FCCFC89BFECF81E09927A9B30A
:10094000019611F0A178D9F70895CF93CFB7CF933F
:10095000C395C89BE9F7C89B09C0C89B07C0C89B43
:1009600005C0C89B03C0C89B01C0A3C0DF93C09152
:10097000DD00DD27CC51DF4FC89B02C0DF91EBCFFC
:100980002F930F931F9309B32FEF00FB20F94F9381
:100990003F9319B34FEF012700FB21F93BE031C032
:1009A0004E7F012F19B3216028C0102F4D7F226088
:1009B000000009B329C04B7F2460012F000019B348
:1009C0002BC019B3477F28602AC04F7E09B320612E
:1009D0002CC04F7D19B320622FC04F7B09B3206418
:1009E00032C0422709B349934FEF0000102710FB94
:1009F00020F919B31178C9F1297F91F2012700FB81
:100A000021F909B3237F89F2315058F1102710FBE7
:100A100022F919B3277E79F2012700FB23F92F7CF5
:100A200081F209B3102710FB24F92F7971F200C06D
:100A300019B3012700FB25F92F7359F200C009B340
:100A4000102710FB26F9223040F200C019B301270D
:100A500000FB27F9243028F64F77206819B30000EF
:100A6000F9CF10E41ABF002719C03B503195C31BC2
:100A7000D04010E41ABF0881033CF9F00B34E9F0D0
:100A80002091DA001981110F1213EDCF4A81441F12
:100A9000093641F10D3211F0013E29F70093E200D1
:100AA0003F914F911F910F912F91DF91CAB7C6FDD2
:100AB0004FCFCF91CFBFCF9118952091E200222345
:100AC00079F31091E000112369F534306AF1309325
:100AD000E0002093DC001091DD003BE0311B3093FF
:100AE000DD0022C00091E0000130E4F40AE54F701F
:100AF00049F43091610034FD19C000936100C3ECEA
:100B0000D0E018C03091CE0034FD10C00093CE006C
:100B1000CFECD0E00FC02795A8F45150A9F4220FD4
:100B20000000F9CF4AE503C042ED01C0432FC4E104
:100B3000D0E032E01AB31168D89A1ABB0BB320E4A4
:100B400011E85F93012756E00BBB279520F4515025
:100B500021F4220FF9CF012756E000003B5A0BBBCE
:100B6000D0F2279528F4515029F4220F0000F9CF34
:100B7000012756E027950BBB20F4515021F4220F9A
:100B8000F9CF012756E0299133230BBB21F60E77CD
:100B90001091E100110FC651D0400BBB11F0109322
:100BA000DA0010E41ABF01601AB31E77402F4E77A7
:100BB0005F9100C000C00BBB1ABB4BBB71CFCF9382
:100BC000DF93EC016C817D8180E090E02CE030E0EF
:100BD00040E050E0F8D0DC01CB0123E0B595A795CB
:100BE000979587952A95D1F79F8B8E8B6E817F8104
:100BF00080E090E02CE030E040E050E0E4D0DC0128
:100C0000CB0133E0B595A795979587953A95D1F7A0
:100C1000998F888F6885798580E090E02CE030E0BE
:100C200040E050E0D0D0DC01CB0143E0B595A79582
:100C3000979587954A95D1F79B8F8A8FDF91CF91B2
:100C400008959EE088E10FB6F894A89581BD0FBE87
:100C500091BD80E28ABB90E49BBB13BC23E020BF24
:100C600023BF21E029BF24E428B916B893B996E040
:100C700097B992E89EBD40E653EE66E170E040937E
:100C80009B0050939C0060939D0070939E008CB9D4
:100C900023DED09A80E091E0A895E7EBFBE0319766
:100CA000F1F700C000000197B9F7D098D3DA789433
:100CB00058E1C52ED12CE12CF12CC1E0A895DCDC4B
:100CC0008091CE0084FF05C056DA68E081E890E0AC
:100CD000B1DC3FB7F8948091BF009091C000A09123
:100CE000C100B091C20022B708B600FE03C02F3F7A
:100CF00009F045C03FBFBA2FA92F982F8827820F30
:100D0000911DA11DB11DBC01CD0147E0660F771FEC
:100D1000881F991F4A95D1F7A70196016DD0BA0196
:100D2000A9018091B7009091B900891318C08091F2
:100D3000BA009091BB00A091BC00B091BD008A01A7
:100D40009B01081B190B2A0B3B0BD901C801813AE7
:100D50009648A140B10578F01092BE000CC0809377
:100D6000B9004093BA005093BB006093BC007093ED
:100D7000BD00C093BE008091BE0025DC9FCF0196D0
:100D8000A11DB11DB7CFCF93DF93E9E8F0E0178A3B
:100D9000168A118E108E138E128E158E148E178E4B
:100DA000168E8EE0A9EAB0E0ED0119928A95E9F776
:100DB00016A617A610AA11AA12AA13AA14AA15AA4F
:100DC000DF91CF910895EE27FF27AA27BB2708C000
:100DD000A20FB31FE41FF51F220F331F441F551F1F
:100DE000969587957795679598F37040A9F7009742
:100DF00099F7BD01CF010895A1E21A2EAA1BBB1BD2
:100E0000FD010DC0AA1FBB1FEE1FFF1FA217B307D6
:100E1000E407F50720F0A21BB30BE40BF50B661FEC
:100E2000771F881F991F1A9469F7609570958095B0
:100E300090959B01AC01BD01CF010895052E97FB54
:100E400016F400940FD057FD05D0D6DF07FC02D072
:100E500046F408C050954095309521953F4F4F4F2F
:100E60005F4F089590958095709561957F4F8F4F56
:100E70009F4F0895EE0FFF1F0590F491E02D099408
:100E8000FB01DC0102C001900D9241505040D8F7A7
:100E90000895DC01862FE82FE199FECF1FBA05C027
:100EA000EEBBE09AE3950DB20D924150C8F708955C
:100EB000DC01862F02C02D9104D04150E0F7089547
:100EC000262FE199FECF1CBA1FBA8EBB2DBB0FB6E1
:100ED000F894E29AE19A0FBE01960895F894FFCF34
:020EE000FF5AB7
:00000001FF
