:1000000092C0B6C0AFC4B4C0B3C068C2B1C0B0C0C3
:10001000AFC0AEC0ADC0ACC0ABC0AAC084C2050109
:100020000904A1010901850175081580257FA1003A
:100030000930093195028102C0A1000932093395C6
:10004000028102C0A10009340935093695038102F5
:10005000C0A1020600FF850295180900B1028503C0
:1000600095120903B102850495010904B1028505C1
:1000700095010905B102850695010906B1028507BA
:1000800095010907B102C0C009022200010100A0C8
:100090001909040000010300000009210101000109
:1000A000226A000705810308001412011001FF00F5
:1000B0000008C016E80300010102030128036700DD
:1000C00072006500750065006C002E006F00720004
:1000D00067003A00680069006400720063006A000B
:1000E0006F007900260352002F00430020007400A7
:1000F0006F0020005000430020004A006F0079008C
:1001000073007400690063006B00160367007200DF
:100110006500750065006C002E006F0072006700BE
:1001200004030904EE0611241FBECFE5D2E0DEBFB2
:10013000CDBF10E0A0E6B0E0EAE3FFE002C005902A
:100140000D92A236B107D9F720E0A2E6B0E001C0D7
:100150001D92AA3FB207E1F710E0C3E9D0E003C067
:100160002197FE01B2D6C239D107D1F7B5D5E3C682
:1001700047CFDF92EF92FF920F931F93CF93DF93BE
:10018000D090BE0081E08093810062E8E62E60E0BE
:10019000F62E09E810E0C0E0D0E0DD2009F443C00D
:1001A0008091A1009091A2002091A3003091A40021
:1001B000D8011B96EC91F894F0E0EE0FFF1FE75585
:1001C000FF4F608171817894681B790B8091930057
:1001D00090E00C2E02C0959587950A94E2F780FF77
:1001E00003C0719561957109CB01770FAA0BBB0B09
:1001F000BC01CD0147E0660F771F881F991F4A9504
:10020000D1F7032E000C440B550B43D62038EFEFEB
:100210003E074E075E074CF0203831054105510579
:100220002CF02FE703C020E001C020E8D7012D9378
:100230007D0121960F5F1F4FC730D10509F0ADCF6B
:10024000DF91CF911F910F91FF90EF90DF90089574
:1002500042E150E060E070E089E890E045D68091AE
:100260008A00803131F580918D0090918E00805D03
:10027000974081349F41E8F480918F0090919000E5
:10028000845F9140853C9940A0F4809191009091C9
:1002900092000A978F3A9B4060F4E4E9F0E0819184
:1002A000873038F480E0EB39F807C9F789E890E047
:1002B000D1C480E180938A0010928B008CEA9DE08B
:1002C00090938E0080938D008CED95E0909390003C
:1002D00080938F0084EF91E090939200809391003F
:1002E00010929300E4E9F0E080E081938F5F873023
:1002F000E1F7DCCF1F93CF93DF93C0916700CC234E
:10030000F1F0DC2F6C1708F4D62FBC0110916800B7
:10031000812F90E04D2F50E087579F4FDCD51D0F68
:1003200010936800CD1BC0936700C11103C089E81A
:1003300090E090D481E0CC2319F080E001C081E00E
:10034000DF91CF911F910895CF93DF93FC0120811E
:100350002076203209F0BEC08181813009F063C06F
:100360008281823079F0833009F453C0813009F002
:10037000B1C0FFDE81E890E09093DF008093DE0063
:1003800088E0A9C02091BE008093690080919B0005
:1003900090919C00A0919D00B0919E0080936D0073
:1003A00090936E00A0936F00B0937000222349F0E9
:1003B000F8944091A7005091A8007894942F852F2D
:1003C00002C090E080E09093710080937200A3E7F8
:1003D000B0E0C9E8D0E0222359F0EB85F894F0E0D2
:1003E000EE0FFF1FE755FF4F80819181789402C087
:1003F00080E090E08D939D932196F0E0A138BF07B7
:1004000051F789E690E09093DF008093DE0088E169
:1004100062C08093890089E890E09093DF00809328
:10042000DE0082E158C0893009F045C08281853004
:10043000C1F110F5833031F1843009F04BC080E117
:1004400080938A0010928B008CEA9DE090938E003E
:1004500080938D008CED95E09093900080938F00B9
:1004600084EF91E09093920080939100109293001A
:10047000E4E9F0E080E00DC08630A9F0873051F566
:10048000BDCD28C01092680082E1809367008FEF95
:1004900022C081938F5F8730E1F789E890E0DAD35B
:1004A00019C0D6DE17C042E150E060E070E089E894
:1004B00090E02AD50FC0823041F486E690E0909318
:1004C000DF008093DE0081E006C08A3019F483816A
:1004D0008093660080E0DF91CF9108951F920F9284
:1004E0000FB60F9211248F939F93AF93BF93809178
:1004F000BF009091C000A091C100B091C2000196D0
:10050000A11DB11D8093BF009093C000A093C100B6
:10051000B093C200BF91AF919F918F910F900FBE8A
:100520000F901F9018951F920F920FB60F921124E3
:100530002F933F934F935F936F937F938F939F93EB
:10054000AF93BF93EF93FF938FEB90E069D326B304
:100550003FE43EB9789422FB332730F920918B0099
:100560002095217032132DC02091A5003091A60056
:10057000AB01421B530B7093A6006093A5008091C2
:100580009F009091A0004817590760F05093A80071
:100590004093A7001092B8008091B7008F5F8093BE
:1005A000B7000FC08091B800873058F4E82FF0E012
:1005B000EE0FFF1FE755FF4F518340838F5F8093FE
:1005C000B800FF91EF91BF91AF919F918F917F9173
:1005D0006F915F914F913F912F910F900FBE0F90B0
:1005E0001F901895CF92DF92EF92FF920F931F9377
:1005F000811105C080E291EAA7E0B0E004C080E587
:1006000093ECA0E0B0E000916200109163002091B3
:100610006400309165006A017B01C01AD10AE20AC8
:10062000F30A8C159D05AE05BF0560F4409362008A
:1006300050936300609364007093650098B382E008
:10064000892788BB1F910F91FF90EF90DF90CF908B
:100650000895CF93C62F2091CE0024FF07C030917C
:10066000CF0028E823272093CF0003C02AE520935A
:10067000CE002C2FFC01A0EDB0E081918D93215094
:100680001216DCF36C2F80ED90E055D1CC5FC09357
:10069000CE00CF910895CF93DF936091E000635037
:1006A00067FDCDC08091DD00CCE0D0E0C81BD10952
:1006B000CC51DF4F8091DC008D3209F0AFC0683043
:1006C00009F0BBC083EC8093C3008AE5809361008E
:1006D0001092DB008881807631F0CE0135DE8F3FCD
:1006E00009F48BC091C09A811092CC00898181114C
:1006F00006C01092CD002CEC30E082E079C085304D
:1007000019F49093E10071C0863009F058C08B81D4
:10071000813041F48AEA90E09093DF008093DE001C
:1007200082E149C0823041F488E890E09093DF0094
:100730008093DE0082E23FC0833041F5911108C012
:1007400080E291E09093DF008093DE0084E033C08C
:10075000913041F48AE091E09093DF008093DE00D5
:1007600086E129C0923041F484EE90E09093DF005E
:100770008093DE0086E21FC09330E1F48CEB90E0C2
:100780009093DF008093DE0088E215C0813241F44F
:100790008AE990E09093DF008093DE0089E00BC04F
:1007A000823241F48EE190E09093DF008093DE008E
:1007B0008AE601C080E090E49093DB0025C0883099
:1007C00069F0893019F49093E3000FC08A3049F042
:1007D0008B3059F48BE48093CF0007C023EE30E0D8
:1007E00002C02CEC30E081E003C02CEC30E080E073
:1007F0003093DF002093DE0007C0988197FD8E8143
:1008000090E89093DB0007C09F81911104C09E8106
:10081000981708F4892F809360000FC08091DB0047
:1008200087FF0BC0CE0166DD8F3F21F48EE1809300
:10083000610003C08111109260001092E00080916D
:10084000610084FF4BC0809160008F3F09F446C077
:10085000C82F893008F0C8E08C1B8093600090910D
:10086000C30088E889278093C300CC2359F1809185
:10087000DE009091DF002091DB0026FF12C0A3EC88
:10088000B0E02C2FAC01435C5040FA01EA0FFB1F93
:10089000E4911196EC931197215011962111F5CF07
:1008A00008C0E4ECF0E0DC012C2F3D9131932150A5
:1008B000E1F701962FEF2C0F820F911D9093DF002F
:1008C0008093DE006C2F84EC90E035D0CC5FCC3090
:1008D00019F08FEF80936000C093610084E196B3BC
:1008E000987131F48150D9F71092E1001092DA003A
:1008F000DF91CF910895AC9A8BB780628BBFEEECFD
:10090000F0E08BE481838AE580830895A82FB92FD6
:1009100080E090E041E050EA609530E009C02D9120
:1009200082279795879510F084279527305EC8F326
:100930006F5FA8F30895EADF8D939D930895A6E075
:1009400088279927AA9569F00197E1F3B399FCCF1D
:10095000B39BFECF81E09927A6B3019611F0A87151
:10096000D9F70895CF93CFB7CF93C395B39BE9F74A
:10097000B39B0BC0B39B09C0B39B07C0B39B05C01F
:10098000B39B03C0B39B01C0D5C00F92DF93C0914E
:10099000DD00DD27CC51DF4F012EB39B03C0DF917B
:1009A0000F90E6CF2F930F931F934F932FEF4F6F1F
:1009B00006B303FB20F95F933F9350E03BE065C033
:1009C00016B30126502953FDC89556B3012703FBE2
:1009D00025F92F7306B3B1F05027102713FB26F922
:1009E00006B22230F0F000C016B3012703FB27F94E
:1009F0000126502906B22430E8F54F77206816B357
:100A00000000F6CF50274F7D206206B2102F000065
:100A100000C006B300265029102713FB26F906B2A2
:100A2000E2CF4F7B06B3206400C0DACF0126502905
:100A3000187106B269F14E7F2160012F16B328C0EC
:100A4000002650294D7F06B22260102F29C00126B2
:100A500050294B7F06B22460012F2DC016B301260A
:100A60005029477F2860000006B22EC04F7E06B393
:100A7000206130C0422706B3499300265029102731
:100A800006B24FEF13FB20F9297F16B379F21871E4
:100A900059F10126502906B2012703FB21F9237FD2
:100AA00006B371F2002650293150D0F006B210275B
:100AB00013FB22F9277E16B351F201265029012794
:100AC00003FB06B223F92F7C49F2000006B310277E
:100AD00013FB24F90026502906B22F7939F270CF82
:100AE00010E21ABF002719C03B503195C31BD040FC
:100AF00010E21ABF0881033C09F10B34F9F0209190
:100B0000DA001981110F1213EDCF4A81441F093603
:100B100051F10D3211F0013E29F70093E2003F91AF
:100B20005F914F911F910F912F91DF910F90CAB755
:100B3000C5FD1BCFCF91CFBFCF9118952091E2007B
:100B4000222369F31091E000112379F534307AF112
:100B50003093E0002093DC001091DD003BE0311B7E
:100B60003093DD0024C00091E0000130F4F40AE588
:100B70004F7049F43091610034FD1AC00093610058
:100B8000C3ECD0E019C03091CE0034FD11C0009309
:100B9000CE00CFECD0E010C0052710E000C021C08F
:100BA000052710E0C89508BB14C03AE501C032ED36
:100BB000032EC0E0D0E032E017B31861C39A08B347
:100BC00017BB58E120E84FEF20FF052708BB27950A
:100BD00017951C3F28F700004552B0F720FF052766
:100BE000279508BB17951C3FB8F629913A9561F7F0
:100BF000077E1091E100110F08BBC250D04011F0E8
:100C00001093DA0010E21ABF086017B3177E402F66
:100C1000477E54E05A95F1F708BB17BB48BB7FCF1E
:100C2000FC0180819181A281B38122B708B601FEC7
:100C300002C02F3F59F4BA2FA92F982F8827BC0143
:100C4000CD01620F711D811D911D08950196A11D99
:100C5000B11DF1CFCF93DF93EC016C817D8180E0FA
:100C600090E021E230E040E050E0D8D0DC01CB0160
:100C700027E0B595A795979587952A95D1F79F8BEE
:100C80008E8B6E817F8180E090E021E230E040E059
:100C900050E0C4D0DC01CB0137E0B595A79597951E
:100CA00087953A95D1F7998F888F6885798580E007
:100CB00090E021E230E040E050E0B0D0DC01CB0138
:100CC00047E0B595A795979587954A95D1F79B8F5E
:100CD0008A8FDF91CF9108959EE088E10FB6F89456
:100CE000A89581BD0FBE91BD82E087BB94E098BB03
:100CF0001CBC93E09ABD93BF89BF8FE08EB988E793
:100D00008DB984E19FEEA3E0B0E080939B009093C7
:100D10009C00A0939D00B0939E00EDDDBB9A80E007
:100D200091E0A895ECE1F0E13197F1F700C0000007
:100D30000197B9F7BB988CDA789431E2C32ED12CA5
:100D4000E12CF12CC1E0A895A6DC8091CE0084FFB7
:100D500005C00FDA68E081E890E07BDCDFB7F8944B
:100D60008FEB90E05DDFDFBF27E0660F771F881F06
:100D7000991F2A95D1F7A701960169D0BA01A90157
:100D80008091B7009091B900891318C08091BA0082
:100D90009091BB00A091BC00B091BD008A019B0165
:100DA000081B190B2A0B3B0BD901C801813A964845
:100DB000A140B10578F01092BE000CC08093B9003C
:100DC0004093BA005093BB006093BC007093BD0089
:100DD000C093BE008091BE0005DCB5CFCF93DF93FA
:100DE000E9E8F0E0178A168A118E108E138E128EA3
:100DF000158E148E178E168E8EE0A9EAB0E0ED01E6
:100E000019928A95E9F716A617A610AA11AA12AA8E
:100E100013AA14AA15AADF91CF910895EE27FF27F0
:100E2000AA27BB2708C0A20FB31FE41FF51F220F7C
:100E3000331F441F551F969587957795679598F3AF
:100E40007040A9F7009799F7BD01CF010895A1E27D
:100E50001A2EAA1BBB1BFD010DC0AA1FBB1FEE1F34
:100E6000FF1FA217B307E407F50720F0A21BB30B7F
:100E7000E40BF50B661F771F881F991F1A9469F7FB
:100E800060957095809590959B01AC01BD01CF0157
:100E90000895052E97FB16F400940FD057FD05D04A
:100EA000D6DF07FC02D046F408C050954095309537
:100EB00021953F4F4F4F5F4F0895909580957095C6
:100EC00061957F4F8F4F9F4F0895EE0FFF1F059045
:100ED000F491E02D0994FB01DC0102C001900D9218
:100EE00041505040D8F70895DC01CB01FC01E19955
:100EF000FECF06C0FFBBEEBBE09A31960DB20D925D
:100F000041505040B8F70895DC01CB0102C02D914B
:100F100005D041505040D8F70895262FE199FECFD3
:100F20001CBA9FBB8EBB2DBB0FB6F894E29AE19A18
:0A0F30000FBE01960895F894FFCF5C
:020F3A00FF5A5C
:00000001FF
